{
	"contracts/testexo.sol": {
		"VotingSystem": {
			"abi": [
				{
					"inputs": [],
					"stateMutability": "nonpayable",
					"type": "constructor"
				},
				{
					"inputs": [
						{
							"internalType": "string",
							"name": "_name",
							"type": "string"
						}
					],
					"name": "addCandidate",
					"outputs": [],
					"stateMutability": "nonpayable",
					"type": "function"
				},
				{
					"inputs": [
						{
							"internalType": "uint256",
							"name": "",
							"type": "uint256"
						}
					],
					"name": "candidates",
					"outputs": [
						{
							"internalType": "uint256",
							"name": "id",
							"type": "uint256"
						},
						{
							"internalType": "string",
							"name": "name",
							"type": "string"
						},
						{
							"internalType": "uint256",
							"name": "voteCount",
							"type": "uint256"
						}
					],
					"stateMutability": "view",
					"type": "function"
				},
				{
					"inputs": [
						{
							"internalType": "uint256",
							"name": "_candidateId",
							"type": "uint256"
						}
					],
					"name": "getCandidate",
					"outputs": [
						{
							"components": [
								{
									"internalType": "uint256",
									"name": "id",
									"type": "uint256"
								},
								{
									"internalType": "string",
									"name": "name",
									"type": "string"
								},
								{
									"internalType": "uint256",
									"name": "voteCount",
									"type": "uint256"
								}
							],
							"internalType": "struct VotingSystem.Candidate",
							"name": "",
							"type": "tuple"
						}
					],
					"stateMutability": "view",
					"type": "function"
				},
				{
					"inputs": [],
					"name": "getCandidateIds",
					"outputs": [
						{
							"internalType": "uint256[]",
							"name": "",
							"type": "uint256[]"
						}
					],
					"stateMutability": "view",
					"type": "function"
				},
				{
					"inputs": [],
					"name": "owner",
					"outputs": [
						{
							"internalType": "address",
							"name": "",
							"type": "address"
						}
					],
					"stateMutability": "view",
					"type": "function"
				},
				{
					"inputs": [],
					"name": "totalCandidates",
					"outputs": [
						{
							"internalType": "uint256",
							"name": "",
							"type": "uint256"
						}
					],
					"stateMutability": "view",
					"type": "function"
				},
				{
					"inputs": [
						{
							"internalType": "uint256",
							"name": "_candidateId",
							"type": "uint256"
						}
					],
					"name": "vote",
					"outputs": [],
					"stateMutability": "nonpayable",
					"type": "function"
				},
				{
					"inputs": [
						{
							"internalType": "address",
							"name": "",
							"type": "address"
						}
					],
					"name": "voters",
					"outputs": [
						{
							"internalType": "bool",
							"name": "",
							"type": "bool"
						}
					],
					"stateMutability": "view",
					"type": "function"
				}
			],
			"devdoc": {
				"kind": "dev",
				"methods": {},
				"version": 1
			},
			"evm": {
				"assembly": "    /* \"contracts/testexo.sol\":70:1395  contract VotingSystem {... */\n  mstore(0x40, 0x80)\n    /* \"contracts/testexo.sol\":428:477  constructor() {... */\n  callvalue\n  dup1\n  iszero\n  tag_1\n  jumpi\n  0x00\n  dup1\n  revert\ntag_1:\n  pop\n    /* \"contracts/testexo.sol\":460:470  msg.sender */\n  caller\n    /* \"contracts/testexo.sol\":452:457  owner */\n  0x00\n  dup1\n    /* \"contracts/testexo.sol\":452:470  owner = msg.sender */\n  0x0100\n  exp\n  dup2\n  sload\n  dup2\n  0xffffffffffffffffffffffffffffffffffffffff\n  mul\n  not\n  and\n  swap1\n  dup4\n  0xffffffffffffffffffffffffffffffffffffffff\n  and\n  mul\n  or\n  swap1\n  sstore\n  pop\n    /* \"contracts/testexo.sol\":70:1395  contract VotingSystem {... */\n  dataSize(sub_0)\n  dup1\n  dataOffset(sub_0)\n  0x00\n  codecopy\n  0x00\n  return\nstop\n\nsub_0: assembly {\n        /* \"contracts/testexo.sol\":70:1395  contract VotingSystem {... */\n      mstore(0x40, 0x80)\n      callvalue\n      dup1\n      iszero\n      tag_1\n      jumpi\n      0x00\n      dup1\n      revert\n    tag_1:\n      pop\n      jumpi(tag_2, lt(calldatasize, 0x04))\n      shr(0xe0, calldataload(0x00))\n      dup1\n      0x462e91ec\n      gt\n      tag_11\n      jumpi\n      dup1\n      0x462e91ec\n      eq\n      tag_7\n      jumpi\n      dup1\n      0x8da5cb5b\n      eq\n      tag_8\n      jumpi\n      dup1\n      0xa3ec138d\n      eq\n      tag_9\n      jumpi\n      dup1\n      0xbec0fde2\n      eq\n      tag_10\n      jumpi\n      jump(tag_2)\n    tag_11:\n      dup1\n      0x0121b93f\n      eq\n      tag_3\n      jumpi\n      dup1\n      0x3477ee2e\n      eq\n      tag_4\n      jumpi\n      dup1\n      0x35b8e820\n      eq\n      tag_5\n      jumpi\n      dup1\n      0x3866965c\n      eq\n      tag_6\n      jumpi\n    tag_2:\n      0x00\n      dup1\n      revert\n        /* \"contracts/testexo.sol\":716:980  function vote(uint _candidateId) public {... */\n    tag_3:\n      tag_12\n      0x04\n      dup1\n      calldatasize\n      sub\n      dup2\n      add\n      swap1\n      tag_13\n      swap2\n      swap1\n      tag_14\n      jump\t// in\n    tag_13:\n      tag_15\n      jump\t// in\n    tag_12:\n      stop\n        /* \"contracts/testexo.sol\":217:261  mapping(uint => Candidate) public candidates */\n    tag_4:\n      tag_16\n      0x04\n      dup1\n      calldatasize\n      sub\n      dup2\n      add\n      swap1\n      tag_17\n      swap2\n      swap1\n      tag_14\n      jump\t// in\n    tag_17:\n      tag_18\n      jump\t// in\n    tag_16:\n      mload(0x40)\n      tag_19\n      swap4\n      swap3\n      swap2\n      swap1\n      tag_20\n      jump\t// in\n    tag_19:\n      mload(0x40)\n      dup1\n      swap2\n      sub\n      swap1\n      return\n        /* \"contracts/testexo.sol\":986:1185  function getCandidate(uint _candidateId) public view returns (Candidate memory) {... */\n    tag_5:\n      tag_21\n      0x04\n      dup1\n      calldatasize\n      sub\n      dup2\n      add\n      swap1\n      tag_22\n      swap2\n      swap1\n      tag_14\n      jump\t// in\n    tag_22:\n      tag_23\n      jump\t// in\n    tag_21:\n      mload(0x40)\n      tag_24\n      swap2\n      swap1\n      tag_25\n      jump\t// in\n    tag_24:\n      mload(0x40)\n      dup1\n      swap2\n      sub\n      swap1\n      return\n        /* \"contracts/testexo.sol\":1191:1288  function totalCandidates() public view returns (uint) {... */\n    tag_6:\n      tag_26\n      tag_27\n      jump\t// in\n    tag_26:\n      mload(0x40)\n      tag_28\n      swap2\n      swap1\n      tag_29\n      jump\t// in\n    tag_28:\n      mload(0x40)\n      dup1\n      swap2\n      sub\n      swap1\n      return\n        /* \"contracts/testexo.sol\":483:710  function addCandidate(string memory _name) public onlyOwner {... */\n    tag_7:\n      tag_30\n      0x04\n      dup1\n      calldatasize\n      sub\n      dup2\n      add\n      swap1\n      tag_31\n      swap2\n      swap1\n      tag_32\n      jump\t// in\n    tag_31:\n      tag_33\n      jump\t// in\n    tag_30:\n      stop\n        /* \"contracts/testexo.sol\":191:211  address public owner */\n    tag_8:\n      tag_34\n      tag_35\n      jump\t// in\n    tag_34:\n      mload(0x40)\n      tag_36\n      swap2\n      swap1\n      tag_37\n      jump\t// in\n    tag_36:\n      mload(0x40)\n      dup1\n      swap2\n      sub\n      swap1\n      return\n        /* \"contracts/testexo.sol\":300:338  mapping(address => bool) public voters */\n    tag_9:\n      tag_38\n      0x04\n      dup1\n      calldatasize\n      sub\n      dup2\n      add\n      swap1\n      tag_39\n      swap2\n      swap1\n      tag_40\n      jump\t// in\n    tag_39:\n      tag_41\n      jump\t// in\n    tag_38:\n      mload(0x40)\n      tag_42\n      swap2\n      swap1\n      tag_43\n      jump\t// in\n    tag_42:\n      mload(0x40)\n      dup1\n      swap2\n      sub\n      swap1\n      return\n        /* \"contracts/testexo.sol\":1294:1393  function getCandidateIds() public view returns (uint[] memory) {... */\n    tag_10:\n      tag_44\n      tag_45\n      jump\t// in\n    tag_44:\n      mload(0x40)\n      tag_46\n      swap2\n      swap1\n      tag_47\n      jump\t// in\n    tag_46:\n      mload(0x40)\n      dup1\n      swap2\n      sub\n      swap1\n      return\n        /* \"contracts/testexo.sol\":716:980  function vote(uint _candidateId) public {... */\n    tag_15:\n        /* \"contracts/testexo.sol\":775:781  voters */\n      0x03\n        /* \"contracts/testexo.sol\":775:793  voters[msg.sender] */\n      0x00\n        /* \"contracts/testexo.sol\":782:792  msg.sender */\n      caller\n        /* \"contracts/testexo.sol\":775:793  voters[msg.sender] */\n      0xffffffffffffffffffffffffffffffffffffffff\n      and\n      0xffffffffffffffffffffffffffffffffffffffff\n      and\n      dup2\n      mstore\n      0x20\n      add\n      swap1\n      dup2\n      mstore\n      0x20\n      add\n      0x00\n      keccak256\n      0x00\n      swap1\n      sload\n      swap1\n      0x0100\n      exp\n      swap1\n      div\n      0xff\n      and\n        /* \"contracts/testexo.sol\":774:793  !voters[msg.sender] */\n      iszero\n        /* \"contracts/testexo.sol\":766:817  require(!voters[msg.sender], \"Vous avez deja vote\") */\n      tag_49\n      jumpi\n      mload(0x40)\n      0x08c379a000000000000000000000000000000000000000000000000000000000\n      dup2\n      mstore\n      0x04\n      add\n      tag_50\n      swap1\n      tag_51\n      jump\t// in\n    tag_50:\n      mload(0x40)\n      dup1\n      swap2\n      sub\n      swap1\n      revert\n    tag_49:\n        /* \"contracts/testexo.sol\":850:862  candidateIds */\n      0x02\n        /* \"contracts/testexo.sol\":850:869  candidateIds.length */\n      dup1\n      sload\n      swap1\n      pop\n        /* \"contracts/testexo.sol\":835:847  _candidateId */\n      dup2\n        /* \"contracts/testexo.sol\":835:869  _candidateId < candidateIds.length */\n      lt\n        /* \"contracts/testexo.sol\":827:888  require(_candidateId < candidateIds.length, \"Id non valable\") */\n      tag_52\n      jumpi\n      mload(0x40)\n      0x08c379a000000000000000000000000000000000000000000000000000000000\n      dup2\n      mstore\n      0x04\n      add\n      tag_53\n      swap1\n      tag_54\n      jump\t// in\n    tag_53:\n      mload(0x40)\n      dup1\n      swap2\n      sub\n      swap1\n      revert\n    tag_52:\n        /* \"contracts/testexo.sol\":920:924  true */\n      0x01\n        /* \"contracts/testexo.sol\":899:905  voters */\n      0x03\n        /* \"contracts/testexo.sol\":899:917  voters[msg.sender] */\n      0x00\n        /* \"contracts/testexo.sol\":906:916  msg.sender */\n      caller\n        /* \"contracts/testexo.sol\":899:917  voters[msg.sender] */\n      0xffffffffffffffffffffffffffffffffffffffff\n      and\n      0xffffffffffffffffffffffffffffffffffffffff\n      and\n      dup2\n      mstore\n      0x20\n      add\n      swap1\n      dup2\n      mstore\n      0x20\n      add\n      0x00\n      keccak256\n      0x00\n        /* \"contracts/testexo.sol\":899:924  voters[msg.sender] = true */\n      0x0100\n      exp\n      dup2\n      sload\n      dup2\n      0xff\n      mul\n      not\n      and\n      swap1\n      dup4\n      iszero\n      iszero\n      mul\n      or\n      swap1\n      sstore\n      pop\n        /* \"contracts/testexo.sol\":972:973  1 */\n      0x01\n        /* \"contracts/testexo.sol\":934:944  candidates */\n      dup1\n        /* \"contracts/testexo.sol\":934:958  candidates[_candidateId] */\n      0x00\n        /* \"contracts/testexo.sol\":945:957  _candidateId */\n      dup4\n        /* \"contracts/testexo.sol\":934:958  candidates[_candidateId] */\n      dup2\n      mstore\n      0x20\n      add\n      swap1\n      dup2\n      mstore\n      0x20\n      add\n      0x00\n      keccak256\n        /* \"contracts/testexo.sol\":934:968  candidates[_candidateId].voteCount */\n      0x02\n      add\n      0x00\n        /* \"contracts/testexo.sol\":934:973  candidates[_candidateId].voteCount += 1 */\n      dup3\n      dup3\n      sload\n      tag_55\n      swap2\n      swap1\n      tag_56\n      jump\t// in\n    tag_55:\n      swap3\n      pop\n      pop\n      dup2\n      swap1\n      sstore\n      pop\n        /* \"contracts/testexo.sol\":716:980  function vote(uint _candidateId) public {... */\n      pop\n      jump\t// out\n        /* \"contracts/testexo.sol\":217:261  mapping(uint => Candidate) public candidates */\n    tag_18:\n      mstore(0x20, 0x01)\n      dup1\n      0x00\n      mstore\n      keccak256(0x00, 0x40)\n      0x00\n      swap2\n      pop\n      swap1\n      pop\n      dup1\n      0x00\n      add\n      sload\n      swap1\n      dup1\n      0x01\n      add\n      dup1\n      sload\n      tag_57\n      swap1\n      tag_58\n      jump\t// in\n    tag_57:\n      dup1\n      0x1f\n      add\n      0x20\n      dup1\n      swap2\n      div\n      mul\n      0x20\n      add\n      mload(0x40)\n      swap1\n      dup2\n      add\n      0x40\n      mstore\n      dup1\n      swap3\n      swap2\n      swap1\n      dup2\n      dup2\n      mstore\n      0x20\n      add\n      dup3\n      dup1\n      sload\n      tag_59\n      swap1\n      tag_58\n      jump\t// in\n    tag_59:\n      dup1\n      iszero\n      tag_60\n      jumpi\n      dup1\n      0x1f\n      lt\n      tag_61\n      jumpi\n      0x0100\n      dup1\n      dup4\n      sload\n      div\n      mul\n      dup4\n      mstore\n      swap2\n      0x20\n      add\n      swap2\n      jump(tag_60)\n    tag_61:\n      dup3\n      add\n      swap2\n      swap1\n      0x00\n      mstore\n      keccak256(0x00, 0x20)\n      swap1\n    tag_62:\n      dup2\n      sload\n      dup2\n      mstore\n      swap1\n      0x01\n      add\n      swap1\n      0x20\n      add\n      dup1\n      dup4\n      gt\n      tag_62\n      jumpi\n      dup3\n      swap1\n      sub\n      0x1f\n      and\n      dup3\n      add\n      swap2\n    tag_60:\n      pop\n      pop\n      pop\n      pop\n      pop\n      swap1\n      dup1\n      0x02\n      add\n      sload\n      swap1\n      pop\n      dup4\n      jump\t// out\n        /* \"contracts/testexo.sol\":986:1185  function getCandidate(uint _candidateId) public view returns (Candidate memory) {... */\n    tag_23:\n        /* \"contracts/testexo.sol\":1048:1064  Candidate memory */\n      tag_63\n      tag_64\n      jump\t// in\n    tag_63:\n        /* \"contracts/testexo.sol\":1099:1111  candidateIds */\n      0x02\n        /* \"contracts/testexo.sol\":1099:1118  candidateIds.length */\n      dup1\n      sload\n      swap1\n      pop\n        /* \"contracts/testexo.sol\":1084:1096  _candidateId */\n      dup3\n        /* \"contracts/testexo.sol\":1084:1118  _candidateId < candidateIds.length */\n      lt\n        /* \"contracts/testexo.sol\":1076:1137  require(_candidateId < candidateIds.length, \"Id non valable\") */\n      tag_66\n      jumpi\n      mload(0x40)\n      0x08c379a000000000000000000000000000000000000000000000000000000000\n      dup2\n      mstore\n      0x04\n      add\n      tag_67\n      swap1\n      tag_54\n      jump\t// in\n    tag_67:\n      mload(0x40)\n      dup1\n      swap2\n      sub\n      swap1\n      revert\n    tag_66:\n        /* \"contracts/testexo.sol\":1154:1164  candidates */\n      0x01\n        /* \"contracts/testexo.sol\":1154:1178  candidates[_candidateId] */\n      0x00\n        /* \"contracts/testexo.sol\":1165:1177  _candidateId */\n      dup4\n        /* \"contracts/testexo.sol\":1154:1178  candidates[_candidateId] */\n      dup2\n      mstore\n      0x20\n      add\n      swap1\n      dup2\n      mstore\n      0x20\n      add\n      0x00\n      keccak256\n        /* \"contracts/testexo.sol\":1147:1178  return candidates[_candidateId] */\n      mload(0x40)\n      dup1\n      0x60\n      add\n      0x40\n      mstore\n      swap1\n      dup2\n      0x00\n      dup3\n      add\n      sload\n      dup2\n      mstore\n      0x20\n      add\n      0x01\n      dup3\n      add\n      dup1\n      sload\n      tag_68\n      swap1\n      tag_58\n      jump\t// in\n    tag_68:\n      dup1\n      0x1f\n      add\n      0x20\n      dup1\n      swap2\n      div\n      mul\n      0x20\n      add\n      mload(0x40)\n      swap1\n      dup2\n      add\n      0x40\n      mstore\n      dup1\n      swap3\n      swap2\n      swap1\n      dup2\n      dup2\n      mstore\n      0x20\n      add\n      dup3\n      dup1\n      sload\n      tag_69\n      swap1\n      tag_58\n      jump\t// in\n    tag_69:\n      dup1\n      iszero\n      tag_70\n      jumpi\n      dup1\n      0x1f\n      lt\n      tag_71\n      jumpi\n      0x0100\n      dup1\n      dup4\n      sload\n      div\n      mul\n      dup4\n      mstore\n      swap2\n      0x20\n      add\n      swap2\n      jump(tag_70)\n    tag_71:\n      dup3\n      add\n      swap2\n      swap1\n      0x00\n      mstore\n      keccak256(0x00, 0x20)\n      swap1\n    tag_72:\n      dup2\n      sload\n      dup2\n      mstore\n      swap1\n      0x01\n      add\n      swap1\n      0x20\n      add\n      dup1\n      dup4\n      gt\n      tag_72\n      jumpi\n      dup3\n      swap1\n      sub\n      0x1f\n      and\n      dup3\n      add\n      swap2\n    tag_70:\n      pop\n      pop\n      pop\n      pop\n      pop\n      dup2\n      mstore\n      0x20\n      add\n      0x02\n      dup3\n      add\n      sload\n      dup2\n      mstore\n      pop\n      pop\n      swap1\n      pop\n        /* \"contracts/testexo.sol\":986:1185  function getCandidate(uint _candidateId) public view returns (Candidate memory) {... */\n      swap2\n      swap1\n      pop\n      jump\t// out\n        /* \"contracts/testexo.sol\":1191:1288  function totalCandidates() public view returns (uint) {... */\n    tag_27:\n        /* \"contracts/testexo.sol\":1239:1243  uint */\n      0x00\n        /* \"contracts/testexo.sol\":1262:1274  candidateIds */\n      0x02\n        /* \"contracts/testexo.sol\":1262:1281  candidateIds.length */\n      dup1\n      sload\n      swap1\n      pop\n        /* \"contracts/testexo.sol\":1255:1281  return candidateIds.length */\n      swap1\n      pop\n        /* \"contracts/testexo.sol\":1191:1288  function totalCandidates() public view returns (uint) {... */\n      swap1\n      jump\t// out\n        /* \"contracts/testexo.sol\":483:710  function addCandidate(string memory _name) public onlyOwner {... */\n    tag_33:\n        /* \"contracts/testexo.sol\":398:403  owner */\n      0x00\n      dup1\n      sload\n      swap1\n      0x0100\n      exp\n      swap1\n      div\n      0xffffffffffffffffffffffffffffffffffffffff\n      and\n        /* \"contracts/testexo.sol\":384:403  msg.sender == owner */\n      0xffffffffffffffffffffffffffffffffffffffff\n      and\n        /* \"contracts/testexo.sol\":384:394  msg.sender */\n      caller\n        /* \"contracts/testexo.sol\":384:403  msg.sender == owner */\n      0xffffffffffffffffffffffffffffffffffffffff\n      and\n      eq\n        /* \"contracts/testexo.sol\":376:404  require(msg.sender == owner) */\n      tag_75\n      jumpi\n      0x00\n      dup1\n      revert\n    tag_75:\n        /* \"contracts/testexo.sol\":553:570  uint _candidateId */\n      0x00\n        /* \"contracts/testexo.sol\":573:585  candidateIds */\n      0x02\n        /* \"contracts/testexo.sol\":573:592  candidateIds.length */\n      dup1\n      sload\n      swap1\n      pop\n        /* \"contracts/testexo.sol\":553:592  uint _candidateId = candidateIds.length */\n      swap1\n      pop\n        /* \"contracts/testexo.sol\":629:662  Candidate(_candidateId, _name, 0) */\n      mload(0x40)\n      dup1\n      0x60\n      add\n      0x40\n      mstore\n      dup1\n        /* \"contracts/testexo.sol\":639:651  _candidateId */\n      dup3\n        /* \"contracts/testexo.sol\":629:662  Candidate(_candidateId, _name, 0) */\n      dup2\n      mstore\n      0x20\n      add\n        /* \"contracts/testexo.sol\":653:658  _name */\n      dup4\n        /* \"contracts/testexo.sol\":629:662  Candidate(_candidateId, _name, 0) */\n      dup2\n      mstore\n      0x20\n      add\n        /* \"contracts/testexo.sol\":660:661  0 */\n      0x00\n        /* \"contracts/testexo.sol\":629:662  Candidate(_candidateId, _name, 0) */\n      dup2\n      mstore\n      pop\n        /* \"contracts/testexo.sol\":602:612  candidates */\n      0x01\n        /* \"contracts/testexo.sol\":602:626  candidates[_candidateId] */\n      0x00\n        /* \"contracts/testexo.sol\":613:625  _candidateId */\n      dup4\n        /* \"contracts/testexo.sol\":602:626  candidates[_candidateId] */\n      dup2\n      mstore\n      0x20\n      add\n      swap1\n      dup2\n      mstore\n      0x20\n      add\n      0x00\n      keccak256\n        /* \"contracts/testexo.sol\":602:662  candidates[_candidateId] = Candidate(_candidateId, _name, 0) */\n      0x00\n      dup3\n      add\n      mload\n      dup2\n      0x00\n      add\n      sstore\n      0x20\n      dup3\n      add\n      mload\n      dup2\n      0x01\n      add\n      swap1\n      dup2\n      tag_77\n      swap2\n      swap1\n      tag_78\n      jump\t// in\n    tag_77:\n      pop\n      0x40\n      dup3\n      add\n      mload\n      dup2\n      0x02\n      add\n      sstore\n      swap1\n      pop\n      pop\n        /* \"contracts/testexo.sol\":672:684  candidateIds */\n      0x02\n        /* \"contracts/testexo.sol\":690:702  _candidateId */\n      dup2\n        /* \"contracts/testexo.sol\":672:703  candidateIds.push(_candidateId) */\n      swap1\n      dup1\n      0x01\n      dup2\n      sload\n      add\n      dup1\n      dup3\n      sstore\n      dup1\n      swap2\n      pop\n      pop\n      0x01\n      swap1\n      sub\n      swap1\n      0x00\n      mstore\n      keccak256(0x00, 0x20)\n      add\n      0x00\n      swap1\n      swap2\n      swap1\n      swap2\n      swap1\n      swap2\n      pop\n      sstore\n        /* \"contracts/testexo.sol\":543:710  {... */\n      pop\n        /* \"contracts/testexo.sol\":483:710  function addCandidate(string memory _name) public onlyOwner {... */\n      pop\n      jump\t// out\n        /* \"contracts/testexo.sol\":191:211  address public owner */\n    tag_35:\n      0x00\n      dup1\n      sload\n      swap1\n      0x0100\n      exp\n      swap1\n      div\n      0xffffffffffffffffffffffffffffffffffffffff\n      and\n      dup2\n      jump\t// out\n        /* \"contracts/testexo.sol\":300:338  mapping(address => bool) public voters */\n    tag_41:\n      mstore(0x20, 0x03)\n      dup1\n      0x00\n      mstore\n      keccak256(0x00, 0x40)\n      0x00\n      swap2\n      pop\n      sload\n      swap1\n      0x0100\n      exp\n      swap1\n      div\n      0xff\n      and\n      dup2\n      jump\t// out\n        /* \"contracts/testexo.sol\":1294:1393  function getCandidateIds() public view returns (uint[] memory) {... */\n    tag_45:\n        /* \"contracts/testexo.sol\":1342:1355  uint[] memory */\n      0x60\n        /* \"contracts/testexo.sol\":1374:1386  candidateIds */\n      0x02\n        /* \"contracts/testexo.sol\":1367:1386  return candidateIds */\n      dup1\n      sload\n      dup1\n      0x20\n      mul\n      0x20\n      add\n      mload(0x40)\n      swap1\n      dup2\n      add\n      0x40\n      mstore\n      dup1\n      swap3\n      swap2\n      swap1\n      dup2\n      dup2\n      mstore\n      0x20\n      add\n      dup3\n      dup1\n      sload\n      dup1\n      iszero\n      tag_81\n      jumpi\n      0x20\n      mul\n      dup3\n      add\n      swap2\n      swap1\n      0x00\n      mstore\n      keccak256(0x00, 0x20)\n      swap1\n    tag_82:\n      dup2\n      sload\n      dup2\n      mstore\n      0x20\n      add\n      swap1\n      0x01\n      add\n      swap1\n      dup1\n      dup4\n      gt\n      tag_82\n      jumpi\n    tag_81:\n      pop\n      pop\n      pop\n      pop\n      pop\n      swap1\n      pop\n        /* \"contracts/testexo.sol\":1294:1393  function getCandidateIds() public view returns (uint[] memory) {... */\n      swap1\n      jump\t// out\n    tag_64:\n      mload(0x40)\n      dup1\n      0x60\n      add\n      0x40\n      mstore\n      dup1\n      0x00\n      dup2\n      mstore\n      0x20\n      add\n      0x60\n      dup2\n      mstore\n      0x20\n      add\n      0x00\n      dup2\n      mstore\n      pop\n      swap1\n      jump\t// out\n        /* \"#utility.yul\":7:82   */\n    tag_83:\n        /* \"#utility.yul\":40:46   */\n      0x00\n        /* \"#utility.yul\":73:75   */\n      0x40\n        /* \"#utility.yul\":67:76   */\n      mload\n        /* \"#utility.yul\":57:76   */\n      swap1\n      pop\n        /* \"#utility.yul\":7:82   */\n      swap1\n      jump\t// out\n        /* \"#utility.yul\":88:205   */\n    tag_84:\n        /* \"#utility.yul\":197:198   */\n      0x00\n        /* \"#utility.yul\":194:195   */\n      dup1\n        /* \"#utility.yul\":187:199   */\n      revert\n        /* \"#utility.yul\":211:328   */\n    tag_85:\n        /* \"#utility.yul\":320:321   */\n      0x00\n        /* \"#utility.yul\":317:318   */\n      dup1\n        /* \"#utility.yul\":310:322   */\n      revert\n        /* \"#utility.yul\":334:411   */\n    tag_86:\n        /* \"#utility.yul\":371:378   */\n      0x00\n        /* \"#utility.yul\":400:405   */\n      dup2\n        /* \"#utility.yul\":389:405   */\n      swap1\n      pop\n        /* \"#utility.yul\":334:411   */\n      swap2\n      swap1\n      pop\n      jump\t// out\n        /* \"#utility.yul\":417:539   */\n    tag_87:\n        /* \"#utility.yul\":490:514   */\n      tag_148\n        /* \"#utility.yul\":508:513   */\n      dup2\n        /* \"#utility.yul\":490:514   */\n      tag_86\n      jump\t// in\n    tag_148:\n        /* \"#utility.yul\":483:488   */\n      dup2\n        /* \"#utility.yul\":480:515   */\n      eq\n        /* \"#utility.yul\":470:533   */\n      tag_149\n      jumpi\n        /* \"#utility.yul\":529:530   */\n      0x00\n        /* \"#utility.yul\":526:527   */\n      dup1\n        /* \"#utility.yul\":519:531   */\n      revert\n        /* \"#utility.yul\":470:533   */\n    tag_149:\n        /* \"#utility.yul\":417:539   */\n      pop\n      jump\t// out\n        /* \"#utility.yul\":545:684   */\n    tag_88:\n        /* \"#utility.yul\":591:596   */\n      0x00\n        /* \"#utility.yul\":629:635   */\n      dup2\n        /* \"#utility.yul\":616:636   */\n      calldataload\n        /* \"#utility.yul\":607:636   */\n      swap1\n      pop\n        /* \"#utility.yul\":645:678   */\n      tag_151\n        /* \"#utility.yul\":672:677   */\n      dup2\n        /* \"#utility.yul\":645:678   */\n      tag_87\n      jump\t// in\n    tag_151:\n        /* \"#utility.yul\":545:684   */\n      swap3\n      swap2\n      pop\n      pop\n      jump\t// out\n        /* \"#utility.yul\":690:1019   */\n    tag_14:\n        /* \"#utility.yul\":749:755   */\n      0x00\n        /* \"#utility.yul\":798:800   */\n      0x20\n        /* \"#utility.yul\":786:795   */\n      dup3\n        /* \"#utility.yul\":777:784   */\n      dup5\n        /* \"#utility.yul\":773:796   */\n      sub\n        /* \"#utility.yul\":769:801   */\n      slt\n        /* \"#utility.yul\":766:885   */\n      iszero\n      tag_153\n      jumpi\n        /* \"#utility.yul\":804:883   */\n      tag_154\n      tag_84\n      jump\t// in\n    tag_154:\n        /* \"#utility.yul\":766:885   */\n    tag_153:\n        /* \"#utility.yul\":924:925   */\n      0x00\n        /* \"#utility.yul\":949:1002   */\n      tag_155\n        /* \"#utility.yul\":994:1001   */\n      dup5\n        /* \"#utility.yul\":985:991   */\n      dup3\n        /* \"#utility.yul\":974:983   */\n      dup6\n        /* \"#utility.yul\":970:992   */\n      add\n        /* \"#utility.yul\":949:1002   */\n      tag_88\n      jump\t// in\n    tag_155:\n        /* \"#utility.yul\":939:1002   */\n      swap2\n      pop\n        /* \"#utility.yul\":895:1012   */\n      pop\n        /* \"#utility.yul\":690:1019   */\n      swap3\n      swap2\n      pop\n      pop\n      jump\t// out\n        /* \"#utility.yul\":1025:1143   */\n    tag_89:\n        /* \"#utility.yul\":1112:1136   */\n      tag_157\n        /* \"#utility.yul\":1130:1135   */\n      dup2\n        /* \"#utility.yul\":1112:1136   */\n      tag_86\n      jump\t// in\n    tag_157:\n        /* \"#utility.yul\":1107:1110   */\n      dup3\n        /* \"#utility.yul\":1100:1137   */\n      mstore\n        /* \"#utility.yul\":1025:1143   */\n      pop\n      pop\n      jump\t// out\n        /* \"#utility.yul\":1149:1248   */\n    tag_90:\n        /* \"#utility.yul\":1201:1207   */\n      0x00\n        /* \"#utility.yul\":1235:1240   */\n      dup2\n        /* \"#utility.yul\":1229:1241   */\n      mload\n        /* \"#utility.yul\":1219:1241   */\n      swap1\n      pop\n        /* \"#utility.yul\":1149:1248   */\n      swap2\n      swap1\n      pop\n      jump\t// out\n        /* \"#utility.yul\":1254:1423   */\n    tag_91:\n        /* \"#utility.yul\":1338:1349   */\n      0x00\n        /* \"#utility.yul\":1372:1378   */\n      dup3\n        /* \"#utility.yul\":1367:1370   */\n      dup3\n        /* \"#utility.yul\":1360:1379   */\n      mstore\n        /* \"#utility.yul\":1412:1416   */\n      0x20\n        /* \"#utility.yul\":1407:1410   */\n      dup3\n        /* \"#utility.yul\":1403:1417   */\n      add\n        /* \"#utility.yul\":1388:1417   */\n      swap1\n      pop\n        /* \"#utility.yul\":1254:1423   */\n      swap3\n      swap2\n      pop\n      pop\n      jump\t// out\n        /* \"#utility.yul\":1429:1675   */\n    tag_92:\n        /* \"#utility.yul\":1510:1511   */\n      0x00\n        /* \"#utility.yul\":1520:1633   */\n    tag_161:\n        /* \"#utility.yul\":1534:1540   */\n      dup4\n        /* \"#utility.yul\":1531:1532   */\n      dup2\n        /* \"#utility.yul\":1528:1541   */\n      lt\n        /* \"#utility.yul\":1520:1633   */\n      iszero\n      tag_163\n      jumpi\n        /* \"#utility.yul\":1619:1620   */\n      dup1\n        /* \"#utility.yul\":1614:1617   */\n      dup3\n        /* \"#utility.yul\":1610:1621   */\n      add\n        /* \"#utility.yul\":1604:1622   */\n      mload\n        /* \"#utility.yul\":1600:1601   */\n      dup2\n        /* \"#utility.yul\":1595:1598   */\n      dup5\n        /* \"#utility.yul\":1591:1602   */\n      add\n        /* \"#utility.yul\":1584:1623   */\n      mstore\n        /* \"#utility.yul\":1556:1558   */\n      0x20\n        /* \"#utility.yul\":1553:1554   */\n      dup2\n        /* \"#utility.yul\":1549:1559   */\n      add\n        /* \"#utility.yul\":1544:1559   */\n      swap1\n      pop\n        /* \"#utility.yul\":1520:1633   */\n      jump(tag_161)\n    tag_163:\n        /* \"#utility.yul\":1667:1668   */\n      0x00\n        /* \"#utility.yul\":1658:1664   */\n      dup5\n        /* \"#utility.yul\":1653:1656   */\n      dup5\n        /* \"#utility.yul\":1649:1665   */\n      add\n        /* \"#utility.yul\":1642:1669   */\n      mstore\n        /* \"#utility.yul\":1491:1675   */\n      pop\n        /* \"#utility.yul\":1429:1675   */\n      pop\n      pop\n      pop\n      jump\t// out\n        /* \"#utility.yul\":1681:1783   */\n    tag_93:\n        /* \"#utility.yul\":1722:1728   */\n      0x00\n        /* \"#utility.yul\":1773:1775   */\n      0x1f\n        /* \"#utility.yul\":1769:1776   */\n      not\n        /* \"#utility.yul\":1764:1766   */\n      0x1f\n        /* \"#utility.yul\":1757:1762   */\n      dup4\n        /* \"#utility.yul\":1753:1767   */\n      add\n        /* \"#utility.yul\":1749:1777   */\n      and\n        /* \"#utility.yul\":1739:1777   */\n      swap1\n      pop\n        /* \"#utility.yul\":1681:1783   */\n      swap2\n      swap1\n      pop\n      jump\t// out\n        /* \"#utility.yul\":1789:2166   */\n    tag_94:\n        /* \"#utility.yul\":1877:1880   */\n      0x00\n        /* \"#utility.yul\":1905:1944   */\n      tag_166\n        /* \"#utility.yul\":1938:1943   */\n      dup3\n        /* \"#utility.yul\":1905:1944   */\n      tag_90\n      jump\t// in\n    tag_166:\n        /* \"#utility.yul\":1960:2031   */\n      tag_167\n        /* \"#utility.yul\":2024:2030   */\n      dup2\n        /* \"#utility.yul\":2019:2022   */\n      dup6\n        /* \"#utility.yul\":1960:2031   */\n      tag_91\n      jump\t// in\n    tag_167:\n        /* \"#utility.yul\":1953:2031   */\n      swap4\n      pop\n        /* \"#utility.yul\":2040:2105   */\n      tag_168\n        /* \"#utility.yul\":2098:2104   */\n      dup2\n        /* \"#utility.yul\":2093:2096   */\n      dup6\n        /* \"#utility.yul\":2086:2090   */\n      0x20\n        /* \"#utility.yul\":2079:2084   */\n      dup7\n        /* \"#utility.yul\":2075:2091   */\n      add\n        /* \"#utility.yul\":2040:2105   */\n      tag_92\n      jump\t// in\n    tag_168:\n        /* \"#utility.yul\":2130:2159   */\n      tag_169\n        /* \"#utility.yul\":2152:2158   */\n      dup2\n        /* \"#utility.yul\":2130:2159   */\n      tag_93\n      jump\t// in\n    tag_169:\n        /* \"#utility.yul\":2125:2128   */\n      dup5\n        /* \"#utility.yul\":2121:2160   */\n      add\n        /* \"#utility.yul\":2114:2160   */\n      swap2\n      pop\n        /* \"#utility.yul\":1881:2166   */\n      pop\n        /* \"#utility.yul\":1789:2166   */\n      swap3\n      swap2\n      pop\n      pop\n      jump\t// out\n        /* \"#utility.yul\":2172:2705   */\n    tag_20:\n        /* \"#utility.yul\":2341:2345   */\n      0x00\n        /* \"#utility.yul\":2379:2381   */\n      0x60\n        /* \"#utility.yul\":2368:2377   */\n      dup3\n        /* \"#utility.yul\":2364:2382   */\n      add\n        /* \"#utility.yul\":2356:2382   */\n      swap1\n      pop\n        /* \"#utility.yul\":2392:2463   */\n      tag_171\n        /* \"#utility.yul\":2460:2461   */\n      0x00\n        /* \"#utility.yul\":2449:2458   */\n      dup4\n        /* \"#utility.yul\":2445:2462   */\n      add\n        /* \"#utility.yul\":2436:2442   */\n      dup7\n        /* \"#utility.yul\":2392:2463   */\n      tag_89\n      jump\t// in\n    tag_171:\n        /* \"#utility.yul\":2510:2519   */\n      dup2\n        /* \"#utility.yul\":2504:2508   */\n      dup2\n        /* \"#utility.yul\":2500:2520   */\n      sub\n        /* \"#utility.yul\":2495:2497   */\n      0x20\n        /* \"#utility.yul\":2484:2493   */\n      dup4\n        /* \"#utility.yul\":2480:2498   */\n      add\n        /* \"#utility.yul\":2473:2521   */\n      mstore\n        /* \"#utility.yul\":2538:2616   */\n      tag_172\n        /* \"#utility.yul\":2611:2615   */\n      dup2\n        /* \"#utility.yul\":2602:2608   */\n      dup6\n        /* \"#utility.yul\":2538:2616   */\n      tag_94\n      jump\t// in\n    tag_172:\n        /* \"#utility.yul\":2530:2616   */\n      swap1\n      pop\n        /* \"#utility.yul\":2626:2698   */\n      tag_173\n        /* \"#utility.yul\":2694:2696   */\n      0x40\n        /* \"#utility.yul\":2683:2692   */\n      dup4\n        /* \"#utility.yul\":2679:2697   */\n      add\n        /* \"#utility.yul\":2670:2676   */\n      dup5\n        /* \"#utility.yul\":2626:2698   */\n      tag_89\n      jump\t// in\n    tag_173:\n        /* \"#utility.yul\":2172:2705   */\n      swap5\n      swap4\n      pop\n      pop\n      pop\n      pop\n      jump\t// out\n        /* \"#utility.yul\":2711:2819   */\n    tag_95:\n        /* \"#utility.yul\":2788:2812   */\n      tag_175\n        /* \"#utility.yul\":2806:2811   */\n      dup2\n        /* \"#utility.yul\":2788:2812   */\n      tag_86\n      jump\t// in\n    tag_175:\n        /* \"#utility.yul\":2783:2786   */\n      dup3\n        /* \"#utility.yul\":2776:2813   */\n      mstore\n        /* \"#utility.yul\":2711:2819   */\n      pop\n      pop\n      jump\t// out\n        /* \"#utility.yul\":2825:2984   */\n    tag_96:\n        /* \"#utility.yul\":2899:2910   */\n      0x00\n        /* \"#utility.yul\":2933:2939   */\n      dup3\n        /* \"#utility.yul\":2928:2931   */\n      dup3\n        /* \"#utility.yul\":2921:2940   */\n      mstore\n        /* \"#utility.yul\":2973:2977   */\n      0x20\n        /* \"#utility.yul\":2968:2971   */\n      dup3\n        /* \"#utility.yul\":2964:2978   */\n      add\n        /* \"#utility.yul\":2949:2978   */\n      swap1\n      pop\n        /* \"#utility.yul\":2825:2984   */\n      swap3\n      swap2\n      pop\n      pop\n      jump\t// out\n        /* \"#utility.yul\":2990:3347   */\n    tag_97:\n        /* \"#utility.yul\":3068:3071   */\n      0x00\n        /* \"#utility.yul\":3096:3135   */\n      tag_178\n        /* \"#utility.yul\":3129:3134   */\n      dup3\n        /* \"#utility.yul\":3096:3135   */\n      tag_90\n      jump\t// in\n    tag_178:\n        /* \"#utility.yul\":3151:3212   */\n      tag_179\n        /* \"#utility.yul\":3205:3211   */\n      dup2\n        /* \"#utility.yul\":3200:3203   */\n      dup6\n        /* \"#utility.yul\":3151:3212   */\n      tag_96\n      jump\t// in\n    tag_179:\n        /* \"#utility.yul\":3144:3212   */\n      swap4\n      pop\n        /* \"#utility.yul\":3221:3286   */\n      tag_180\n        /* \"#utility.yul\":3279:3285   */\n      dup2\n        /* \"#utility.yul\":3274:3277   */\n      dup6\n        /* \"#utility.yul\":3267:3271   */\n      0x20\n        /* \"#utility.yul\":3260:3265   */\n      dup7\n        /* \"#utility.yul\":3256:3272   */\n      add\n        /* \"#utility.yul\":3221:3286   */\n      tag_92\n      jump\t// in\n    tag_180:\n        /* \"#utility.yul\":3311:3340   */\n      tag_181\n        /* \"#utility.yul\":3333:3339   */\n      dup2\n        /* \"#utility.yul\":3311:3340   */\n      tag_93\n      jump\t// in\n    tag_181:\n        /* \"#utility.yul\":3306:3309   */\n      dup5\n        /* \"#utility.yul\":3302:3341   */\n      add\n        /* \"#utility.yul\":3295:3341   */\n      swap2\n      pop\n        /* \"#utility.yul\":3072:3347   */\n      pop\n        /* \"#utility.yul\":2990:3347   */\n      swap3\n      swap2\n      pop\n      pop\n      jump\t// out\n        /* \"#utility.yul\":3423:4204   */\n    tag_98:\n        /* \"#utility.yul\":3540:3543   */\n      0x00\n        /* \"#utility.yul\":3576:3580   */\n      0x60\n        /* \"#utility.yul\":3571:3574   */\n      dup4\n        /* \"#utility.yul\":3567:3581   */\n      add\n        /* \"#utility.yul\":3661:3665   */\n      0x00\n        /* \"#utility.yul\":3654:3659   */\n      dup4\n        /* \"#utility.yul\":3650:3666   */\n      add\n        /* \"#utility.yul\":3644:3667   */\n      mload\n        /* \"#utility.yul\":3680:3743   */\n      tag_183\n        /* \"#utility.yul\":3737:3741   */\n      0x00\n        /* \"#utility.yul\":3732:3735   */\n      dup7\n        /* \"#utility.yul\":3728:3742   */\n      add\n        /* \"#utility.yul\":3714:3726   */\n      dup3\n        /* \"#utility.yul\":3680:3743   */\n      tag_95\n      jump\t// in\n    tag_183:\n        /* \"#utility.yul\":3591:3753   */\n      pop\n        /* \"#utility.yul\":3835:3839   */\n      0x20\n        /* \"#utility.yul\":3828:3833   */\n      dup4\n        /* \"#utility.yul\":3824:3840   */\n      add\n        /* \"#utility.yul\":3818:3841   */\n      mload\n        /* \"#utility.yul\":3888:3891   */\n      dup5\n        /* \"#utility.yul\":3882:3886   */\n      dup3\n        /* \"#utility.yul\":3878:3892   */\n      sub\n        /* \"#utility.yul\":3871:3875   */\n      0x20\n        /* \"#utility.yul\":3866:3869   */\n      dup7\n        /* \"#utility.yul\":3862:3876   */\n      add\n        /* \"#utility.yul\":3855:3893   */\n      mstore\n        /* \"#utility.yul\":3914:3987   */\n      tag_184\n        /* \"#utility.yul\":3982:3986   */\n      dup3\n        /* \"#utility.yul\":3968:3980   */\n      dup3\n        /* \"#utility.yul\":3914:3987   */\n      tag_97\n      jump\t// in\n    tag_184:\n        /* \"#utility.yul\":3906:3987   */\n      swap2\n      pop\n        /* \"#utility.yul\":3763:3998   */\n      pop\n        /* \"#utility.yul\":4085:4089   */\n      0x40\n        /* \"#utility.yul\":4078:4083   */\n      dup4\n        /* \"#utility.yul\":4074:4090   */\n      add\n        /* \"#utility.yul\":4068:4091   */\n      mload\n        /* \"#utility.yul\":4104:4167   */\n      tag_185\n        /* \"#utility.yul\":4161:4165   */\n      0x40\n        /* \"#utility.yul\":4156:4159   */\n      dup7\n        /* \"#utility.yul\":4152:4166   */\n      add\n        /* \"#utility.yul\":4138:4150   */\n      dup3\n        /* \"#utility.yul\":4104:4167   */\n      tag_95\n      jump\t// in\n    tag_185:\n        /* \"#utility.yul\":4008:4177   */\n      pop\n        /* \"#utility.yul\":4194:4198   */\n      dup1\n        /* \"#utility.yul\":4187:4198   */\n      swap2\n      pop\n        /* \"#utility.yul\":3545:4204   */\n      pop\n        /* \"#utility.yul\":3423:4204   */\n      swap3\n      swap2\n      pop\n      pop\n      jump\t// out\n        /* \"#utility.yul\":4210:4579   */\n    tag_25:\n        /* \"#utility.yul\":4351:4355   */\n      0x00\n        /* \"#utility.yul\":4389:4391   */\n      0x20\n        /* \"#utility.yul\":4378:4387   */\n      dup3\n        /* \"#utility.yul\":4374:4392   */\n      add\n        /* \"#utility.yul\":4366:4392   */\n      swap1\n      pop\n        /* \"#utility.yul\":4438:4447   */\n      dup2\n        /* \"#utility.yul\":4432:4436   */\n      dup2\n        /* \"#utility.yul\":4428:4448   */\n      sub\n        /* \"#utility.yul\":4424:4425   */\n      0x00\n        /* \"#utility.yul\":4413:4422   */\n      dup4\n        /* \"#utility.yul\":4409:4426   */\n      add\n        /* \"#utility.yul\":4402:4449   */\n      mstore\n        /* \"#utility.yul\":4466:4572   */\n      tag_187\n        /* \"#utility.yul\":4567:4571   */\n      dup2\n        /* \"#utility.yul\":4558:4564   */\n      dup5\n        /* \"#utility.yul\":4466:4572   */\n      tag_98\n      jump\t// in\n    tag_187:\n        /* \"#utility.yul\":4458:4572   */\n      swap1\n      pop\n        /* \"#utility.yul\":4210:4579   */\n      swap3\n      swap2\n      pop\n      pop\n      jump\t// out\n        /* \"#utility.yul\":4585:4807   */\n    tag_29:\n        /* \"#utility.yul\":4678:4682   */\n      0x00\n        /* \"#utility.yul\":4716:4718   */\n      0x20\n        /* \"#utility.yul\":4705:4714   */\n      dup3\n        /* \"#utility.yul\":4701:4719   */\n      add\n        /* \"#utility.yul\":4693:4719   */\n      swap1\n      pop\n        /* \"#utility.yul\":4729:4800   */\n      tag_189\n        /* \"#utility.yul\":4797:4798   */\n      0x00\n        /* \"#utility.yul\":4786:4795   */\n      dup4\n        /* \"#utility.yul\":4782:4799   */\n      add\n        /* \"#utility.yul\":4773:4779   */\n      dup5\n        /* \"#utility.yul\":4729:4800   */\n      tag_89\n      jump\t// in\n    tag_189:\n        /* \"#utility.yul\":4585:4807   */\n      swap3\n      swap2\n      pop\n      pop\n      jump\t// out\n        /* \"#utility.yul\":4813:4930   */\n    tag_99:\n        /* \"#utility.yul\":4922:4923   */\n      0x00\n        /* \"#utility.yul\":4919:4920   */\n      dup1\n        /* \"#utility.yul\":4912:4924   */\n      revert\n        /* \"#utility.yul\":4936:5053   */\n    tag_100:\n        /* \"#utility.yul\":5045:5046   */\n      0x00\n        /* \"#utility.yul\":5042:5043   */\n      dup1\n        /* \"#utility.yul\":5035:5047   */\n      revert\n        /* \"#utility.yul\":5059:5239   */\n    tag_101:\n        /* \"#utility.yul\":5107:5184   */\n      0x4e487b7100000000000000000000000000000000000000000000000000000000\n        /* \"#utility.yul\":5104:5105   */\n      0x00\n        /* \"#utility.yul\":5097:5185   */\n      mstore\n        /* \"#utility.yul\":5204:5208   */\n      0x41\n        /* \"#utility.yul\":5201:5202   */\n      0x04\n        /* \"#utility.yul\":5194:5209   */\n      mstore\n        /* \"#utility.yul\":5228:5232   */\n      0x24\n        /* \"#utility.yul\":5225:5226   */\n      0x00\n        /* \"#utility.yul\":5218:5233   */\n      revert\n        /* \"#utility.yul\":5245:5526   */\n    tag_102:\n        /* \"#utility.yul\":5328:5355   */\n      tag_194\n        /* \"#utility.yul\":5350:5354   */\n      dup3\n        /* \"#utility.yul\":5328:5355   */\n      tag_93\n      jump\t// in\n    tag_194:\n        /* \"#utility.yul\":5320:5326   */\n      dup2\n        /* \"#utility.yul\":5316:5356   */\n      add\n        /* \"#utility.yul\":5458:5464   */\n      dup2\n        /* \"#utility.yul\":5446:5456   */\n      dup2\n        /* \"#utility.yul\":5443:5465   */\n      lt\n        /* \"#utility.yul\":5422:5440   */\n      0xffffffffffffffff\n        /* \"#utility.yul\":5410:5420   */\n      dup3\n        /* \"#utility.yul\":5407:5441   */\n      gt\n        /* \"#utility.yul\":5404:5466   */\n      or\n        /* \"#utility.yul\":5401:5489   */\n      iszero\n      tag_195\n      jumpi\n        /* \"#utility.yul\":5469:5487   */\n      tag_196\n      tag_101\n      jump\t// in\n    tag_196:\n        /* \"#utility.yul\":5401:5489   */\n    tag_195:\n        /* \"#utility.yul\":5509:5519   */\n      dup1\n        /* \"#utility.yul\":5505:5507   */\n      0x40\n        /* \"#utility.yul\":5498:5520   */\n      mstore\n        /* \"#utility.yul\":5288:5526   */\n      pop\n        /* \"#utility.yul\":5245:5526   */\n      pop\n      pop\n      jump\t// out\n        /* \"#utility.yul\":5532:5661   */\n    tag_103:\n        /* \"#utility.yul\":5566:5572   */\n      0x00\n        /* \"#utility.yul\":5593:5613   */\n      tag_198\n      tag_83\n      jump\t// in\n    tag_198:\n        /* \"#utility.yul\":5583:5613   */\n      swap1\n      pop\n        /* \"#utility.yul\":5622:5655   */\n      tag_199\n        /* \"#utility.yul\":5650:5654   */\n      dup3\n        /* \"#utility.yul\":5642:5648   */\n      dup3\n        /* \"#utility.yul\":5622:5655   */\n      tag_102\n      jump\t// in\n    tag_199:\n        /* \"#utility.yul\":5532:5661   */\n      swap2\n      swap1\n      pop\n      jump\t// out\n        /* \"#utility.yul\":5667:5975   */\n    tag_104:\n        /* \"#utility.yul\":5729:5733   */\n      0x00\n        /* \"#utility.yul\":5819:5837   */\n      0xffffffffffffffff\n        /* \"#utility.yul\":5811:5817   */\n      dup3\n        /* \"#utility.yul\":5808:5838   */\n      gt\n        /* \"#utility.yul\":5805:5861   */\n      iszero\n      tag_201\n      jumpi\n        /* \"#utility.yul\":5841:5859   */\n      tag_202\n      tag_101\n      jump\t// in\n    tag_202:\n        /* \"#utility.yul\":5805:5861   */\n    tag_201:\n        /* \"#utility.yul\":5879:5908   */\n      tag_203\n        /* \"#utility.yul\":5901:5907   */\n      dup3\n        /* \"#utility.yul\":5879:5908   */\n      tag_93\n      jump\t// in\n    tag_203:\n        /* \"#utility.yul\":5871:5908   */\n      swap1\n      pop\n        /* \"#utility.yul\":5963:5967   */\n      0x20\n        /* \"#utility.yul\":5957:5961   */\n      dup2\n        /* \"#utility.yul\":5953:5968   */\n      add\n        /* \"#utility.yul\":5945:5968   */\n      swap1\n      pop\n        /* \"#utility.yul\":5667:5975   */\n      swap2\n      swap1\n      pop\n      jump\t// out\n        /* \"#utility.yul\":5981:6127   */\n    tag_105:\n        /* \"#utility.yul\":6078:6084   */\n      dup3\n        /* \"#utility.yul\":6073:6076   */\n      dup2\n        /* \"#utility.yul\":6068:6071   */\n      dup4\n        /* \"#utility.yul\":6055:6085   */\n      calldatacopy\n        /* \"#utility.yul\":6119:6120   */\n      0x00\n        /* \"#utility.yul\":6110:6116   */\n      dup4\n        /* \"#utility.yul\":6105:6108   */\n      dup4\n        /* \"#utility.yul\":6101:6117   */\n      add\n        /* \"#utility.yul\":6094:6121   */\n      mstore\n        /* \"#utility.yul\":5981:6127   */\n      pop\n      pop\n      pop\n      jump\t// out\n        /* \"#utility.yul\":6133:6558   */\n    tag_106:\n        /* \"#utility.yul\":6211:6216   */\n      0x00\n        /* \"#utility.yul\":6236:6302   */\n      tag_206\n        /* \"#utility.yul\":6252:6301   */\n      tag_207\n        /* \"#utility.yul\":6294:6300   */\n      dup5\n        /* \"#utility.yul\":6252:6301   */\n      tag_104\n      jump\t// in\n    tag_207:\n        /* \"#utility.yul\":6236:6302   */\n      tag_103\n      jump\t// in\n    tag_206:\n        /* \"#utility.yul\":6227:6302   */\n      swap1\n      pop\n        /* \"#utility.yul\":6325:6331   */\n      dup3\n        /* \"#utility.yul\":6318:6323   */\n      dup2\n        /* \"#utility.yul\":6311:6332   */\n      mstore\n        /* \"#utility.yul\":6363:6367   */\n      0x20\n        /* \"#utility.yul\":6356:6361   */\n      dup2\n        /* \"#utility.yul\":6352:6368   */\n      add\n        /* \"#utility.yul\":6401:6404   */\n      dup5\n        /* \"#utility.yul\":6392:6398   */\n      dup5\n        /* \"#utility.yul\":6387:6390   */\n      dup5\n        /* \"#utility.yul\":6383:6399   */\n      add\n        /* \"#utility.yul\":6380:6405   */\n      gt\n        /* \"#utility.yul\":6377:6489   */\n      iszero\n      tag_208\n      jumpi\n        /* \"#utility.yul\":6408:6487   */\n      tag_209\n      tag_100\n      jump\t// in\n    tag_209:\n        /* \"#utility.yul\":6377:6489   */\n    tag_208:\n        /* \"#utility.yul\":6498:6552   */\n      tag_210\n        /* \"#utility.yul\":6545:6551   */\n      dup5\n        /* \"#utility.yul\":6540:6543   */\n      dup3\n        /* \"#utility.yul\":6535:6538   */\n      dup6\n        /* \"#utility.yul\":6498:6552   */\n      tag_105\n      jump\t// in\n    tag_210:\n        /* \"#utility.yul\":6217:6558   */\n      pop\n        /* \"#utility.yul\":6133:6558   */\n      swap4\n      swap3\n      pop\n      pop\n      pop\n      jump\t// out\n        /* \"#utility.yul\":6578:6918   */\n    tag_107:\n        /* \"#utility.yul\":6634:6639   */\n      0x00\n        /* \"#utility.yul\":6683:6686   */\n      dup3\n        /* \"#utility.yul\":6676:6680   */\n      0x1f\n        /* \"#utility.yul\":6668:6674   */\n      dup4\n        /* \"#utility.yul\":6664:6681   */\n      add\n        /* \"#utility.yul\":6660:6687   */\n      slt\n        /* \"#utility.yul\":6650:6772   */\n      tag_212\n      jumpi\n        /* \"#utility.yul\":6691:6770   */\n      tag_213\n      tag_99\n      jump\t// in\n    tag_213:\n        /* \"#utility.yul\":6650:6772   */\n    tag_212:\n        /* \"#utility.yul\":6808:6814   */\n      dup2\n        /* \"#utility.yul\":6795:6815   */\n      calldataload\n        /* \"#utility.yul\":6833:6912   */\n      tag_214\n        /* \"#utility.yul\":6908:6911   */\n      dup5\n        /* \"#utility.yul\":6900:6906   */\n      dup3\n        /* \"#utility.yul\":6893:6897   */\n      0x20\n        /* \"#utility.yul\":6885:6891   */\n      dup7\n        /* \"#utility.yul\":6881:6898   */\n      add\n        /* \"#utility.yul\":6833:6912   */\n      tag_106\n      jump\t// in\n    tag_214:\n        /* \"#utility.yul\":6824:6912   */\n      swap2\n      pop\n        /* \"#utility.yul\":6640:6918   */\n      pop\n        /* \"#utility.yul\":6578:6918   */\n      swap3\n      swap2\n      pop\n      pop\n      jump\t// out\n        /* \"#utility.yul\":6924:7433   */\n    tag_32:\n        /* \"#utility.yul\":6993:6999   */\n      0x00\n        /* \"#utility.yul\":7042:7044   */\n      0x20\n        /* \"#utility.yul\":7030:7039   */\n      dup3\n        /* \"#utility.yul\":7021:7028   */\n      dup5\n        /* \"#utility.yul\":7017:7040   */\n      sub\n        /* \"#utility.yul\":7013:7045   */\n      slt\n        /* \"#utility.yul\":7010:7129   */\n      iszero\n      tag_216\n      jumpi\n        /* \"#utility.yul\":7048:7127   */\n      tag_217\n      tag_84\n      jump\t// in\n    tag_217:\n        /* \"#utility.yul\":7010:7129   */\n    tag_216:\n        /* \"#utility.yul\":7196:7197   */\n      0x00\n        /* \"#utility.yul\":7185:7194   */\n      dup3\n        /* \"#utility.yul\":7181:7198   */\n      add\n        /* \"#utility.yul\":7168:7199   */\n      calldataload\n        /* \"#utility.yul\":7226:7244   */\n      0xffffffffffffffff\n        /* \"#utility.yul\":7218:7224   */\n      dup2\n        /* \"#utility.yul\":7215:7245   */\n      gt\n        /* \"#utility.yul\":7212:7329   */\n      iszero\n      tag_218\n      jumpi\n        /* \"#utility.yul\":7248:7327   */\n      tag_219\n      tag_85\n      jump\t// in\n    tag_219:\n        /* \"#utility.yul\":7212:7329   */\n    tag_218:\n        /* \"#utility.yul\":7353:7416   */\n      tag_220\n        /* \"#utility.yul\":7408:7415   */\n      dup5\n        /* \"#utility.yul\":7399:7405   */\n      dup3\n        /* \"#utility.yul\":7388:7397   */\n      dup6\n        /* \"#utility.yul\":7384:7406   */\n      add\n        /* \"#utility.yul\":7353:7416   */\n      tag_107\n      jump\t// in\n    tag_220:\n        /* \"#utility.yul\":7343:7416   */\n      swap2\n      pop\n        /* \"#utility.yul\":7139:7426   */\n      pop\n        /* \"#utility.yul\":6924:7433   */\n      swap3\n      swap2\n      pop\n      pop\n      jump\t// out\n        /* \"#utility.yul\":7439:7565   */\n    tag_108:\n        /* \"#utility.yul\":7476:7483   */\n      0x00\n        /* \"#utility.yul\":7516:7558   */\n      0xffffffffffffffffffffffffffffffffffffffff\n        /* \"#utility.yul\":7509:7514   */\n      dup3\n        /* \"#utility.yul\":7505:7559   */\n      and\n        /* \"#utility.yul\":7494:7559   */\n      swap1\n      pop\n        /* \"#utility.yul\":7439:7565   */\n      swap2\n      swap1\n      pop\n      jump\t// out\n        /* \"#utility.yul\":7571:7667   */\n    tag_109:\n        /* \"#utility.yul\":7608:7615   */\n      0x00\n        /* \"#utility.yul\":7637:7661   */\n      tag_223\n        /* \"#utility.yul\":7655:7660   */\n      dup3\n        /* \"#utility.yul\":7637:7661   */\n      tag_108\n      jump\t// in\n    tag_223:\n        /* \"#utility.yul\":7626:7661   */\n      swap1\n      pop\n        /* \"#utility.yul\":7571:7667   */\n      swap2\n      swap1\n      pop\n      jump\t// out\n        /* \"#utility.yul\":7673:7791   */\n    tag_110:\n        /* \"#utility.yul\":7760:7784   */\n      tag_225\n        /* \"#utility.yul\":7778:7783   */\n      dup2\n        /* \"#utility.yul\":7760:7784   */\n      tag_109\n      jump\t// in\n    tag_225:\n        /* \"#utility.yul\":7755:7758   */\n      dup3\n        /* \"#utility.yul\":7748:7785   */\n      mstore\n        /* \"#utility.yul\":7673:7791   */\n      pop\n      pop\n      jump\t// out\n        /* \"#utility.yul\":7797:8019   */\n    tag_37:\n        /* \"#utility.yul\":7890:7894   */\n      0x00\n        /* \"#utility.yul\":7928:7930   */\n      0x20\n        /* \"#utility.yul\":7917:7926   */\n      dup3\n        /* \"#utility.yul\":7913:7931   */\n      add\n        /* \"#utility.yul\":7905:7931   */\n      swap1\n      pop\n        /* \"#utility.yul\":7941:8012   */\n      tag_227\n        /* \"#utility.yul\":8009:8010   */\n      0x00\n        /* \"#utility.yul\":7998:8007   */\n      dup4\n        /* \"#utility.yul\":7994:8011   */\n      add\n        /* \"#utility.yul\":7985:7991   */\n      dup5\n        /* \"#utility.yul\":7941:8012   */\n      tag_110\n      jump\t// in\n    tag_227:\n        /* \"#utility.yul\":7797:8019   */\n      swap3\n      swap2\n      pop\n      pop\n      jump\t// out\n        /* \"#utility.yul\":8025:8147   */\n    tag_111:\n        /* \"#utility.yul\":8098:8122   */\n      tag_229\n        /* \"#utility.yul\":8116:8121   */\n      dup2\n        /* \"#utility.yul\":8098:8122   */\n      tag_109\n      jump\t// in\n    tag_229:\n        /* \"#utility.yul\":8091:8096   */\n      dup2\n        /* \"#utility.yul\":8088:8123   */\n      eq\n        /* \"#utility.yul\":8078:8141   */\n      tag_230\n      jumpi\n        /* \"#utility.yul\":8137:8138   */\n      0x00\n        /* \"#utility.yul\":8134:8135   */\n      dup1\n        /* \"#utility.yul\":8127:8139   */\n      revert\n        /* \"#utility.yul\":8078:8141   */\n    tag_230:\n        /* \"#utility.yul\":8025:8147   */\n      pop\n      jump\t// out\n        /* \"#utility.yul\":8153:8292   */\n    tag_112:\n        /* \"#utility.yul\":8199:8204   */\n      0x00\n        /* \"#utility.yul\":8237:8243   */\n      dup2\n        /* \"#utility.yul\":8224:8244   */\n      calldataload\n        /* \"#utility.yul\":8215:8244   */\n      swap1\n      pop\n        /* \"#utility.yul\":8253:8286   */\n      tag_232\n        /* \"#utility.yul\":8280:8285   */\n      dup2\n        /* \"#utility.yul\":8253:8286   */\n      tag_111\n      jump\t// in\n    tag_232:\n        /* \"#utility.yul\":8153:8292   */\n      swap3\n      swap2\n      pop\n      pop\n      jump\t// out\n        /* \"#utility.yul\":8298:8627   */\n    tag_40:\n        /* \"#utility.yul\":8357:8363   */\n      0x00\n        /* \"#utility.yul\":8406:8408   */\n      0x20\n        /* \"#utility.yul\":8394:8403   */\n      dup3\n        /* \"#utility.yul\":8385:8392   */\n      dup5\n        /* \"#utility.yul\":8381:8404   */\n      sub\n        /* \"#utility.yul\":8377:8409   */\n      slt\n        /* \"#utility.yul\":8374:8493   */\n      iszero\n      tag_234\n      jumpi\n        /* \"#utility.yul\":8412:8491   */\n      tag_235\n      tag_84\n      jump\t// in\n    tag_235:\n        /* \"#utility.yul\":8374:8493   */\n    tag_234:\n        /* \"#utility.yul\":8532:8533   */\n      0x00\n        /* \"#utility.yul\":8557:8610   */\n      tag_236\n        /* \"#utility.yul\":8602:8609   */\n      dup5\n        /* \"#utility.yul\":8593:8599   */\n      dup3\n        /* \"#utility.yul\":8582:8591   */\n      dup6\n        /* \"#utility.yul\":8578:8600   */\n      add\n        /* \"#utility.yul\":8557:8610   */\n      tag_112\n      jump\t// in\n    tag_236:\n        /* \"#utility.yul\":8547:8610   */\n      swap2\n      pop\n        /* \"#utility.yul\":8503:8620   */\n      pop\n        /* \"#utility.yul\":8298:8627   */\n      swap3\n      swap2\n      pop\n      pop\n      jump\t// out\n        /* \"#utility.yul\":8633:8723   */\n    tag_113:\n        /* \"#utility.yul\":8667:8674   */\n      0x00\n        /* \"#utility.yul\":8710:8715   */\n      dup2\n        /* \"#utility.yul\":8703:8716   */\n      iszero\n        /* \"#utility.yul\":8696:8717   */\n      iszero\n        /* \"#utility.yul\":8685:8717   */\n      swap1\n      pop\n        /* \"#utility.yul\":8633:8723   */\n      swap2\n      swap1\n      pop\n      jump\t// out\n        /* \"#utility.yul\":8729:8838   */\n    tag_114:\n        /* \"#utility.yul\":8810:8831   */\n      tag_239\n        /* \"#utility.yul\":8825:8830   */\n      dup2\n        /* \"#utility.yul\":8810:8831   */\n      tag_113\n      jump\t// in\n    tag_239:\n        /* \"#utility.yul\":8805:8808   */\n      dup3\n        /* \"#utility.yul\":8798:8832   */\n      mstore\n        /* \"#utility.yul\":8729:8838   */\n      pop\n      pop\n      jump\t// out\n        /* \"#utility.yul\":8844:9054   */\n    tag_43:\n        /* \"#utility.yul\":8931:8935   */\n      0x00\n        /* \"#utility.yul\":8969:8971   */\n      0x20\n        /* \"#utility.yul\":8958:8967   */\n      dup3\n        /* \"#utility.yul\":8954:8972   */\n      add\n        /* \"#utility.yul\":8946:8972   */\n      swap1\n      pop\n        /* \"#utility.yul\":8982:9047   */\n      tag_241\n        /* \"#utility.yul\":9044:9045   */\n      0x00\n        /* \"#utility.yul\":9033:9042   */\n      dup4\n        /* \"#utility.yul\":9029:9046   */\n      add\n        /* \"#utility.yul\":9020:9026   */\n      dup5\n        /* \"#utility.yul\":8982:9047   */\n      tag_114\n      jump\t// in\n    tag_241:\n        /* \"#utility.yul\":8844:9054   */\n      swap3\n      swap2\n      pop\n      pop\n      jump\t// out\n        /* \"#utility.yul\":9060:9174   */\n    tag_115:\n        /* \"#utility.yul\":9127:9133   */\n      0x00\n        /* \"#utility.yul\":9161:9166   */\n      dup2\n        /* \"#utility.yul\":9155:9167   */\n      mload\n        /* \"#utility.yul\":9145:9167   */\n      swap1\n      pop\n        /* \"#utility.yul\":9060:9174   */\n      swap2\n      swap1\n      pop\n      jump\t// out\n        /* \"#utility.yul\":9180:9364   */\n    tag_116:\n        /* \"#utility.yul\":9279:9290   */\n      0x00\n        /* \"#utility.yul\":9313:9319   */\n      dup3\n        /* \"#utility.yul\":9308:9311   */\n      dup3\n        /* \"#utility.yul\":9301:9320   */\n      mstore\n        /* \"#utility.yul\":9353:9357   */\n      0x20\n        /* \"#utility.yul\":9348:9351   */\n      dup3\n        /* \"#utility.yul\":9344:9358   */\n      add\n        /* \"#utility.yul\":9329:9358   */\n      swap1\n      pop\n        /* \"#utility.yul\":9180:9364   */\n      swap3\n      swap2\n      pop\n      pop\n      jump\t// out\n        /* \"#utility.yul\":9370:9502   */\n    tag_117:\n        /* \"#utility.yul\":9437:9441   */\n      0x00\n        /* \"#utility.yul\":9460:9463   */\n      dup2\n        /* \"#utility.yul\":9452:9463   */\n      swap1\n      pop\n        /* \"#utility.yul\":9490:9494   */\n      0x20\n        /* \"#utility.yul\":9485:9488   */\n      dup3\n        /* \"#utility.yul\":9481:9495   */\n      add\n        /* \"#utility.yul\":9473:9495   */\n      swap1\n      pop\n        /* \"#utility.yul\":9370:9502   */\n      swap2\n      swap1\n      pop\n      jump\t// out\n        /* \"#utility.yul\":9508:9687   */\n    tag_118:\n        /* \"#utility.yul\":9577:9587   */\n      0x00\n        /* \"#utility.yul\":9598:9644   */\n      tag_246\n        /* \"#utility.yul\":9640:9643   */\n      dup4\n        /* \"#utility.yul\":9632:9638   */\n      dup4\n        /* \"#utility.yul\":9598:9644   */\n      tag_95\n      jump\t// in\n    tag_246:\n        /* \"#utility.yul\":9676:9680   */\n      0x20\n        /* \"#utility.yul\":9671:9674   */\n      dup4\n        /* \"#utility.yul\":9667:9681   */\n      add\n        /* \"#utility.yul\":9653:9681   */\n      swap1\n      pop\n        /* \"#utility.yul\":9508:9687   */\n      swap3\n      swap2\n      pop\n      pop\n      jump\t// out\n        /* \"#utility.yul\":9693:9806   */\n    tag_119:\n        /* \"#utility.yul\":9763:9767   */\n      0x00\n        /* \"#utility.yul\":9795:9799   */\n      0x20\n        /* \"#utility.yul\":9790:9793   */\n      dup3\n        /* \"#utility.yul\":9786:9800   */\n      add\n        /* \"#utility.yul\":9778:9800   */\n      swap1\n      pop\n        /* \"#utility.yul\":9693:9806   */\n      swap2\n      swap1\n      pop\n      jump\t// out\n        /* \"#utility.yul\":9842:10574   */\n    tag_120:\n        /* \"#utility.yul\":9961:9964   */\n      0x00\n        /* \"#utility.yul\":9990:10044   */\n      tag_249\n        /* \"#utility.yul\":10038:10043   */\n      dup3\n        /* \"#utility.yul\":9990:10044   */\n      tag_115\n      jump\t// in\n    tag_249:\n        /* \"#utility.yul\":10060:10146   */\n      tag_250\n        /* \"#utility.yul\":10139:10145   */\n      dup2\n        /* \"#utility.yul\":10134:10137   */\n      dup6\n        /* \"#utility.yul\":10060:10146   */\n      tag_116\n      jump\t// in\n    tag_250:\n        /* \"#utility.yul\":10053:10146   */\n      swap4\n      pop\n        /* \"#utility.yul\":10170:10226   */\n      tag_251\n        /* \"#utility.yul\":10220:10225   */\n      dup4\n        /* \"#utility.yul\":10170:10226   */\n      tag_117\n      jump\t// in\n    tag_251:\n        /* \"#utility.yul\":10249:10256   */\n      dup1\n        /* \"#utility.yul\":10280:10281   */\n      0x00\n        /* \"#utility.yul\":10265:10549   */\n    tag_252:\n        /* \"#utility.yul\":10290:10296   */\n      dup4\n        /* \"#utility.yul\":10287:10288   */\n      dup2\n        /* \"#utility.yul\":10284:10297   */\n      lt\n        /* \"#utility.yul\":10265:10549   */\n      iszero\n      tag_254\n      jumpi\n        /* \"#utility.yul\":10366:10372   */\n      dup2\n        /* \"#utility.yul\":10360:10373   */\n      mload\n        /* \"#utility.yul\":10393:10456   */\n      tag_255\n        /* \"#utility.yul\":10452:10455   */\n      dup9\n        /* \"#utility.yul\":10437:10450   */\n      dup3\n        /* \"#utility.yul\":10393:10456   */\n      tag_118\n      jump\t// in\n    tag_255:\n        /* \"#utility.yul\":10386:10456   */\n      swap8\n      pop\n        /* \"#utility.yul\":10479:10539   */\n      tag_256\n        /* \"#utility.yul\":10532:10538   */\n      dup4\n        /* \"#utility.yul\":10479:10539   */\n      tag_119\n      jump\t// in\n    tag_256:\n        /* \"#utility.yul\":10469:10539   */\n      swap3\n      pop\n        /* \"#utility.yul\":10325:10549   */\n      pop\n        /* \"#utility.yul\":10312:10313   */\n      0x01\n        /* \"#utility.yul\":10309:10310   */\n      dup2\n        /* \"#utility.yul\":10305:10314   */\n      add\n        /* \"#utility.yul\":10300:10314   */\n      swap1\n      pop\n        /* \"#utility.yul\":10265:10549   */\n      jump(tag_252)\n    tag_254:\n        /* \"#utility.yul\":10269:10283   */\n      pop\n        /* \"#utility.yul\":10565:10568   */\n      dup6\n        /* \"#utility.yul\":10558:10568   */\n      swap4\n      pop\n        /* \"#utility.yul\":9966:10574   */\n      pop\n      pop\n      pop\n        /* \"#utility.yul\":9842:10574   */\n      swap3\n      swap2\n      pop\n      pop\n      jump\t// out\n        /* \"#utility.yul\":10580:10953   */\n    tag_47:\n        /* \"#utility.yul\":10723:10727   */\n      0x00\n        /* \"#utility.yul\":10761:10763   */\n      0x20\n        /* \"#utility.yul\":10750:10759   */\n      dup3\n        /* \"#utility.yul\":10746:10764   */\n      add\n        /* \"#utility.yul\":10738:10764   */\n      swap1\n      pop\n        /* \"#utility.yul\":10810:10819   */\n      dup2\n        /* \"#utility.yul\":10804:10808   */\n      dup2\n        /* \"#utility.yul\":10800:10820   */\n      sub\n        /* \"#utility.yul\":10796:10797   */\n      0x00\n        /* \"#utility.yul\":10785:10794   */\n      dup4\n        /* \"#utility.yul\":10781:10798   */\n      add\n        /* \"#utility.yul\":10774:10821   */\n      mstore\n        /* \"#utility.yul\":10838:10946   */\n      tag_258\n        /* \"#utility.yul\":10941:10945   */\n      dup2\n        /* \"#utility.yul\":10932:10938   */\n      dup5\n        /* \"#utility.yul\":10838:10946   */\n      tag_120\n      jump\t// in\n    tag_258:\n        /* \"#utility.yul\":10830:10946   */\n      swap1\n      pop\n        /* \"#utility.yul\":10580:10953   */\n      swap3\n      swap2\n      pop\n      pop\n      jump\t// out\n        /* \"#utility.yul\":10959:11128   */\n    tag_121:\n        /* \"#utility.yul\":11099:11120   */\n      0x566f7573206176657a2064656a6120766f746500000000000000000000000000\n        /* \"#utility.yul\":11095:11096   */\n      0x00\n        /* \"#utility.yul\":11087:11093   */\n      dup3\n        /* \"#utility.yul\":11083:11097   */\n      add\n        /* \"#utility.yul\":11076:11121   */\n      mstore\n        /* \"#utility.yul\":10959:11128   */\n      pop\n      jump\t// out\n        /* \"#utility.yul\":11134:11500   */\n    tag_122:\n        /* \"#utility.yul\":11276:11279   */\n      0x00\n        /* \"#utility.yul\":11297:11364   */\n      tag_261\n        /* \"#utility.yul\":11361:11363   */\n      0x13\n        /* \"#utility.yul\":11356:11359   */\n      dup4\n        /* \"#utility.yul\":11297:11364   */\n      tag_91\n      jump\t// in\n    tag_261:\n        /* \"#utility.yul\":11290:11364   */\n      swap2\n      pop\n        /* \"#utility.yul\":11373:11466   */\n      tag_262\n        /* \"#utility.yul\":11462:11465   */\n      dup3\n        /* \"#utility.yul\":11373:11466   */\n      tag_121\n      jump\t// in\n    tag_262:\n        /* \"#utility.yul\":11491:11493   */\n      0x20\n        /* \"#utility.yul\":11486:11489   */\n      dup3\n        /* \"#utility.yul\":11482:11494   */\n      add\n        /* \"#utility.yul\":11475:11494   */\n      swap1\n      pop\n        /* \"#utility.yul\":11134:11500   */\n      swap2\n      swap1\n      pop\n      jump\t// out\n        /* \"#utility.yul\":11506:11925   */\n    tag_51:\n        /* \"#utility.yul\":11672:11676   */\n      0x00\n        /* \"#utility.yul\":11710:11712   */\n      0x20\n        /* \"#utility.yul\":11699:11708   */\n      dup3\n        /* \"#utility.yul\":11695:11713   */\n      add\n        /* \"#utility.yul\":11687:11713   */\n      swap1\n      pop\n        /* \"#utility.yul\":11759:11768   */\n      dup2\n        /* \"#utility.yul\":11753:11757   */\n      dup2\n        /* \"#utility.yul\":11749:11769   */\n      sub\n        /* \"#utility.yul\":11745:11746   */\n      0x00\n        /* \"#utility.yul\":11734:11743   */\n      dup4\n        /* \"#utility.yul\":11730:11747   */\n      add\n        /* \"#utility.yul\":11723:11770   */\n      mstore\n        /* \"#utility.yul\":11787:11918   */\n      tag_264\n        /* \"#utility.yul\":11913:11917   */\n      dup2\n        /* \"#utility.yul\":11787:11918   */\n      tag_122\n      jump\t// in\n    tag_264:\n        /* \"#utility.yul\":11779:11918   */\n      swap1\n      pop\n        /* \"#utility.yul\":11506:11925   */\n      swap2\n      swap1\n      pop\n      jump\t// out\n        /* \"#utility.yul\":11931:12095   */\n    tag_123:\n        /* \"#utility.yul\":12071:12087   */\n      0x4964206e6f6e2076616c61626c65000000000000000000000000000000000000\n        /* \"#utility.yul\":12067:12068   */\n      0x00\n        /* \"#utility.yul\":12059:12065   */\n      dup3\n        /* \"#utility.yul\":12055:12069   */\n      add\n        /* \"#utility.yul\":12048:12088   */\n      mstore\n        /* \"#utility.yul\":11931:12095   */\n      pop\n      jump\t// out\n        /* \"#utility.yul\":12101:12467   */\n    tag_124:\n        /* \"#utility.yul\":12243:12246   */\n      0x00\n        /* \"#utility.yul\":12264:12331   */\n      tag_267\n        /* \"#utility.yul\":12328:12330   */\n      0x0e\n        /* \"#utility.yul\":12323:12326   */\n      dup4\n        /* \"#utility.yul\":12264:12331   */\n      tag_91\n      jump\t// in\n    tag_267:\n        /* \"#utility.yul\":12257:12331   */\n      swap2\n      pop\n        /* \"#utility.yul\":12340:12433   */\n      tag_268\n        /* \"#utility.yul\":12429:12432   */\n      dup3\n        /* \"#utility.yul\":12340:12433   */\n      tag_123\n      jump\t// in\n    tag_268:\n        /* \"#utility.yul\":12458:12460   */\n      0x20\n        /* \"#utility.yul\":12453:12456   */\n      dup3\n        /* \"#utility.yul\":12449:12461   */\n      add\n        /* \"#utility.yul\":12442:12461   */\n      swap1\n      pop\n        /* \"#utility.yul\":12101:12467   */\n      swap2\n      swap1\n      pop\n      jump\t// out\n        /* \"#utility.yul\":12473:12892   */\n    tag_54:\n        /* \"#utility.yul\":12639:12643   */\n      0x00\n        /* \"#utility.yul\":12677:12679   */\n      0x20\n        /* \"#utility.yul\":12666:12675   */\n      dup3\n        /* \"#utility.yul\":12662:12680   */\n      add\n        /* \"#utility.yul\":12654:12680   */\n      swap1\n      pop\n        /* \"#utility.yul\":12726:12735   */\n      dup2\n        /* \"#utility.yul\":12720:12724   */\n      dup2\n        /* \"#utility.yul\":12716:12736   */\n      sub\n        /* \"#utility.yul\":12712:12713   */\n      0x00\n        /* \"#utility.yul\":12701:12710   */\n      dup4\n        /* \"#utility.yul\":12697:12714   */\n      add\n        /* \"#utility.yul\":12690:12737   */\n      mstore\n        /* \"#utility.yul\":12754:12885   */\n      tag_270\n        /* \"#utility.yul\":12880:12884   */\n      dup2\n        /* \"#utility.yul\":12754:12885   */\n      tag_124\n      jump\t// in\n    tag_270:\n        /* \"#utility.yul\":12746:12885   */\n      swap1\n      pop\n        /* \"#utility.yul\":12473:12892   */\n      swap2\n      swap1\n      pop\n      jump\t// out\n        /* \"#utility.yul\":12898:13078   */\n    tag_125:\n        /* \"#utility.yul\":12946:13023   */\n      0x4e487b7100000000000000000000000000000000000000000000000000000000\n        /* \"#utility.yul\":12943:12944   */\n      0x00\n        /* \"#utility.yul\":12936:13024   */\n      mstore\n        /* \"#utility.yul\":13043:13047   */\n      0x11\n        /* \"#utility.yul\":13040:13041   */\n      0x04\n        /* \"#utility.yul\":13033:13048   */\n      mstore\n        /* \"#utility.yul\":13067:13071   */\n      0x24\n        /* \"#utility.yul\":13064:13065   */\n      0x00\n        /* \"#utility.yul\":13057:13072   */\n      revert\n        /* \"#utility.yul\":13084:13275   */\n    tag_56:\n        /* \"#utility.yul\":13124:13127   */\n      0x00\n        /* \"#utility.yul\":13143:13163   */\n      tag_273\n        /* \"#utility.yul\":13161:13162   */\n      dup3\n        /* \"#utility.yul\":13143:13163   */\n      tag_86\n      jump\t// in\n    tag_273:\n        /* \"#utility.yul\":13138:13163   */\n      swap2\n      pop\n        /* \"#utility.yul\":13177:13197   */\n      tag_274\n        /* \"#utility.yul\":13195:13196   */\n      dup4\n        /* \"#utility.yul\":13177:13197   */\n      tag_86\n      jump\t// in\n    tag_274:\n        /* \"#utility.yul\":13172:13197   */\n      swap3\n      pop\n        /* \"#utility.yul\":13220:13221   */\n      dup3\n        /* \"#utility.yul\":13217:13218   */\n      dup3\n        /* \"#utility.yul\":13213:13222   */\n      add\n        /* \"#utility.yul\":13206:13222   */\n      swap1\n      pop\n        /* \"#utility.yul\":13241:13244   */\n      dup1\n        /* \"#utility.yul\":13238:13239   */\n      dup3\n        /* \"#utility.yul\":13235:13245   */\n      gt\n        /* \"#utility.yul\":13232:13268   */\n      iszero\n      tag_275\n      jumpi\n        /* \"#utility.yul\":13248:13266   */\n      tag_276\n      tag_125\n      jump\t// in\n    tag_276:\n        /* \"#utility.yul\":13232:13268   */\n    tag_275:\n        /* \"#utility.yul\":13084:13275   */\n      swap3\n      swap2\n      pop\n      pop\n      jump\t// out\n        /* \"#utility.yul\":13281:13461   */\n    tag_126:\n        /* \"#utility.yul\":13329:13406   */\n      0x4e487b7100000000000000000000000000000000000000000000000000000000\n        /* \"#utility.yul\":13326:13327   */\n      0x00\n        /* \"#utility.yul\":13319:13407   */\n      mstore\n        /* \"#utility.yul\":13426:13430   */\n      0x22\n        /* \"#utility.yul\":13423:13424   */\n      0x04\n        /* \"#utility.yul\":13416:13431   */\n      mstore\n        /* \"#utility.yul\":13450:13454   */\n      0x24\n        /* \"#utility.yul\":13447:13448   */\n      0x00\n        /* \"#utility.yul\":13440:13455   */\n      revert\n        /* \"#utility.yul\":13467:13787   */\n    tag_58:\n        /* \"#utility.yul\":13511:13517   */\n      0x00\n        /* \"#utility.yul\":13548:13549   */\n      0x02\n        /* \"#utility.yul\":13542:13546   */\n      dup3\n        /* \"#utility.yul\":13538:13550   */\n      div\n        /* \"#utility.yul\":13528:13550   */\n      swap1\n      pop\n        /* \"#utility.yul\":13595:13596   */\n      0x01\n        /* \"#utility.yul\":13589:13593   */\n      dup3\n        /* \"#utility.yul\":13585:13597   */\n      and\n        /* \"#utility.yul\":13616:13634   */\n      dup1\n        /* \"#utility.yul\":13606:13687   */\n      tag_279\n      jumpi\n        /* \"#utility.yul\":13672:13676   */\n      0x7f\n        /* \"#utility.yul\":13664:13670   */\n      dup3\n        /* \"#utility.yul\":13660:13677   */\n      and\n        /* \"#utility.yul\":13650:13677   */\n      swap2\n      pop\n        /* \"#utility.yul\":13606:13687   */\n    tag_279:\n        /* \"#utility.yul\":13734:13736   */\n      0x20\n        /* \"#utility.yul\":13726:13732   */\n      dup3\n        /* \"#utility.yul\":13723:13737   */\n      lt\n        /* \"#utility.yul\":13703:13721   */\n      dup2\n        /* \"#utility.yul\":13700:13738   */\n      sub\n        /* \"#utility.yul\":13697:13781   */\n      tag_280\n      jumpi\n        /* \"#utility.yul\":13753:13771   */\n      tag_281\n      tag_126\n      jump\t// in\n    tag_281:\n        /* \"#utility.yul\":13697:13781   */\n    tag_280:\n        /* \"#utility.yul\":13518:13787   */\n      pop\n        /* \"#utility.yul\":13467:13787   */\n      swap2\n      swap1\n      pop\n      jump\t// out\n        /* \"#utility.yul\":13793:13934   */\n    tag_127:\n        /* \"#utility.yul\":13842:13846   */\n      0x00\n        /* \"#utility.yul\":13865:13868   */\n      dup2\n        /* \"#utility.yul\":13857:13868   */\n      swap1\n      pop\n        /* \"#utility.yul\":13888:13891   */\n      dup2\n        /* \"#utility.yul\":13885:13886   */\n      0x00\n        /* \"#utility.yul\":13878:13892   */\n      mstore\n        /* \"#utility.yul\":13922:13926   */\n      0x20\n        /* \"#utility.yul\":13919:13920   */\n      0x00\n        /* \"#utility.yul\":13909:13927   */\n      keccak256\n        /* \"#utility.yul\":13901:13927   */\n      swap1\n      pop\n        /* \"#utility.yul\":13793:13934   */\n      swap2\n      swap1\n      pop\n      jump\t// out\n        /* \"#utility.yul\":13940:14033   */\n    tag_128:\n        /* \"#utility.yul\":13977:13983   */\n      0x00\n        /* \"#utility.yul\":14024:14026   */\n      0x20\n        /* \"#utility.yul\":14019:14021   */\n      0x1f\n        /* \"#utility.yul\":14012:14017   */\n      dup4\n        /* \"#utility.yul\":14008:14022   */\n      add\n        /* \"#utility.yul\":14004:14027   */\n      div\n        /* \"#utility.yul\":13994:14027   */\n      swap1\n      pop\n        /* \"#utility.yul\":13940:14033   */\n      swap2\n      swap1\n      pop\n      jump\t// out\n        /* \"#utility.yul\":14039:14146   */\n    tag_129:\n        /* \"#utility.yul\":14083:14091   */\n      0x00\n        /* \"#utility.yul\":14133:14138   */\n      dup3\n        /* \"#utility.yul\":14127:14131   */\n      dup3\n        /* \"#utility.yul\":14123:14139   */\n      shl\n        /* \"#utility.yul\":14102:14139   */\n      swap1\n      pop\n        /* \"#utility.yul\":14039:14146   */\n      swap3\n      swap2\n      pop\n      pop\n      jump\t// out\n        /* \"#utility.yul\":14152:14545   */\n    tag_130:\n        /* \"#utility.yul\":14221:14227   */\n      0x00\n        /* \"#utility.yul\":14271:14272   */\n      0x08\n        /* \"#utility.yul\":14259:14269   */\n      dup4\n        /* \"#utility.yul\":14255:14273   */\n      mul\n        /* \"#utility.yul\":14294:14391   */\n      tag_286\n        /* \"#utility.yul\":14324:14390   */\n      0xffffffffffffffffffffffffffffffffffffffffffffffffffffffffffffffff\n        /* \"#utility.yul\":14313:14322   */\n      dup3\n        /* \"#utility.yul\":14294:14391   */\n      tag_129\n      jump\t// in\n    tag_286:\n        /* \"#utility.yul\":14412:14451   */\n      tag_287\n        /* \"#utility.yul\":14442:14450   */\n      dup7\n        /* \"#utility.yul\":14431:14440   */\n      dup4\n        /* \"#utility.yul\":14412:14451   */\n      tag_129\n      jump\t// in\n    tag_287:\n        /* \"#utility.yul\":14400:14451   */\n      swap6\n      pop\n        /* \"#utility.yul\":14484:14488   */\n      dup1\n        /* \"#utility.yul\":14480:14489   */\n      not\n        /* \"#utility.yul\":14473:14478   */\n      dup5\n        /* \"#utility.yul\":14469:14490   */\n      and\n        /* \"#utility.yul\":14460:14490   */\n      swap4\n      pop\n        /* \"#utility.yul\":14533:14537   */\n      dup1\n        /* \"#utility.yul\":14523:14531   */\n      dup7\n        /* \"#utility.yul\":14519:14538   */\n      and\n        /* \"#utility.yul\":14512:14517   */\n      dup5\n        /* \"#utility.yul\":14509:14539   */\n      or\n        /* \"#utility.yul\":14499:14539   */\n      swap3\n      pop\n        /* \"#utility.yul\":14228:14545   */\n      pop\n      pop\n        /* \"#utility.yul\":14152:14545   */\n      swap4\n      swap3\n      pop\n      pop\n      pop\n      jump\t// out\n        /* \"#utility.yul\":14551:14611   */\n    tag_131:\n        /* \"#utility.yul\":14579:14582   */\n      0x00\n        /* \"#utility.yul\":14600:14605   */\n      dup2\n        /* \"#utility.yul\":14593:14605   */\n      swap1\n      pop\n        /* \"#utility.yul\":14551:14611   */\n      swap2\n      swap1\n      pop\n      jump\t// out\n        /* \"#utility.yul\":14617:14759   */\n    tag_132:\n        /* \"#utility.yul\":14667:14676   */\n      0x00\n        /* \"#utility.yul\":14700:14753   */\n      tag_290\n        /* \"#utility.yul\":14718:14752   */\n      tag_291\n        /* \"#utility.yul\":14727:14751   */\n      tag_292\n        /* \"#utility.yul\":14745:14750   */\n      dup5\n        /* \"#utility.yul\":14727:14751   */\n      tag_86\n      jump\t// in\n    tag_292:\n        /* \"#utility.yul\":14718:14752   */\n      tag_131\n      jump\t// in\n    tag_291:\n        /* \"#utility.yul\":14700:14753   */\n      tag_86\n      jump\t// in\n    tag_290:\n        /* \"#utility.yul\":14687:14753   */\n      swap1\n      pop\n        /* \"#utility.yul\":14617:14759   */\n      swap2\n      swap1\n      pop\n      jump\t// out\n        /* \"#utility.yul\":14765:14840   */\n    tag_133:\n        /* \"#utility.yul\":14808:14811   */\n      0x00\n        /* \"#utility.yul\":14829:14834   */\n      dup2\n        /* \"#utility.yul\":14822:14834   */\n      swap1\n      pop\n        /* \"#utility.yul\":14765:14840   */\n      swap2\n      swap1\n      pop\n      jump\t// out\n        /* \"#utility.yul\":14846:15115   */\n    tag_134:\n        /* \"#utility.yul\":14956:14995   */\n      tag_295\n        /* \"#utility.yul\":14987:14994   */\n      dup4\n        /* \"#utility.yul\":14956:14995   */\n      tag_132\n      jump\t// in\n    tag_295:\n        /* \"#utility.yul\":15017:15108   */\n      tag_296\n        /* \"#utility.yul\":15066:15107   */\n      tag_297\n        /* \"#utility.yul\":15090:15106   */\n      dup3\n        /* \"#utility.yul\":15066:15107   */\n      tag_133\n      jump\t// in\n    tag_297:\n        /* \"#utility.yul\":15058:15064   */\n      dup5\n        /* \"#utility.yul\":15051:15055   */\n      dup5\n        /* \"#utility.yul\":15045:15056   */\n      sload\n        /* \"#utility.yul\":15017:15108   */\n      tag_130\n      jump\t// in\n    tag_296:\n        /* \"#utility.yul\":15011:15015   */\n      dup3\n        /* \"#utility.yul\":15004:15109   */\n      sstore\n        /* \"#utility.yul\":14922:15115   */\n      pop\n        /* \"#utility.yul\":14846:15115   */\n      pop\n      pop\n      pop\n      jump\t// out\n        /* \"#utility.yul\":15121:15194   */\n    tag_135:\n        /* \"#utility.yul\":15166:15169   */\n      0x00\n        /* \"#utility.yul\":15121:15194   */\n      swap1\n      jump\t// out\n        /* \"#utility.yul\":15200:15389   */\n    tag_136:\n        /* \"#utility.yul\":15277:15309   */\n      tag_300\n      tag_135\n      jump\t// in\n    tag_300:\n        /* \"#utility.yul\":15318:15383   */\n      tag_301\n        /* \"#utility.yul\":15376:15382   */\n      dup2\n        /* \"#utility.yul\":15368:15374   */\n      dup5\n        /* \"#utility.yul\":15362:15366   */\n      dup5\n        /* \"#utility.yul\":15318:15383   */\n      tag_134\n      jump\t// in\n    tag_301:\n        /* \"#utility.yul\":15253:15389   */\n      pop\n        /* \"#utility.yul\":15200:15389   */\n      pop\n      pop\n      jump\t// out\n        /* \"#utility.yul\":15395:15581   */\n    tag_137:\n        /* \"#utility.yul\":15455:15575   */\n    tag_303:\n        /* \"#utility.yul\":15472:15475   */\n      dup2\n        /* \"#utility.yul\":15465:15470   */\n      dup2\n        /* \"#utility.yul\":15462:15476   */\n      lt\n        /* \"#utility.yul\":15455:15575   */\n      iszero\n      tag_305\n      jumpi\n        /* \"#utility.yul\":15526:15565   */\n      tag_306\n        /* \"#utility.yul\":15563:15564   */\n      0x00\n        /* \"#utility.yul\":15556:15561   */\n      dup3\n        /* \"#utility.yul\":15526:15565   */\n      tag_136\n      jump\t// in\n    tag_306:\n        /* \"#utility.yul\":15499:15500   */\n      0x01\n        /* \"#utility.yul\":15492:15497   */\n      dup2\n        /* \"#utility.yul\":15488:15501   */\n      add\n        /* \"#utility.yul\":15479:15501   */\n      swap1\n      pop\n        /* \"#utility.yul\":15455:15575   */\n      jump(tag_303)\n    tag_305:\n        /* \"#utility.yul\":15395:15581   */\n      pop\n      pop\n      jump\t// out\n        /* \"#utility.yul\":15587:16130   */\n    tag_138:\n        /* \"#utility.yul\":15688:15690   */\n      0x1f\n        /* \"#utility.yul\":15683:15686   */\n      dup3\n        /* \"#utility.yul\":15680:15691   */\n      gt\n        /* \"#utility.yul\":15677:16123   */\n      iszero\n      tag_308\n      jumpi\n        /* \"#utility.yul\":15722:15760   */\n      tag_309\n        /* \"#utility.yul\":15754:15759   */\n      dup2\n        /* \"#utility.yul\":15722:15760   */\n      tag_127\n      jump\t// in\n    tag_309:\n        /* \"#utility.yul\":15806:15835   */\n      tag_310\n        /* \"#utility.yul\":15824:15834   */\n      dup5\n        /* \"#utility.yul\":15806:15835   */\n      tag_128\n      jump\t// in\n    tag_310:\n        /* \"#utility.yul\":15796:15804   */\n      dup2\n        /* \"#utility.yul\":15792:15836   */\n      add\n        /* \"#utility.yul\":15989:15991   */\n      0x20\n        /* \"#utility.yul\":15977:15987   */\n      dup6\n        /* \"#utility.yul\":15974:15992   */\n      lt\n        /* \"#utility.yul\":15971:16020   */\n      iszero\n      tag_311\n      jumpi\n        /* \"#utility.yul\":16010:16018   */\n      dup2\n        /* \"#utility.yul\":15995:16018   */\n      swap1\n      pop\n        /* \"#utility.yul\":15971:16020   */\n    tag_311:\n        /* \"#utility.yul\":16033:16113   */\n      tag_312\n        /* \"#utility.yul\":16089:16111   */\n      tag_313\n        /* \"#utility.yul\":16107:16110   */\n      dup6\n        /* \"#utility.yul\":16089:16111   */\n      tag_128\n      jump\t// in\n    tag_313:\n        /* \"#utility.yul\":16079:16087   */\n      dup4\n        /* \"#utility.yul\":16075:16112   */\n      add\n        /* \"#utility.yul\":16062:16073   */\n      dup3\n        /* \"#utility.yul\":16033:16113   */\n      tag_137\n      jump\t// in\n    tag_312:\n        /* \"#utility.yul\":15692:16123   */\n      pop\n      pop\n        /* \"#utility.yul\":15677:16123   */\n    tag_308:\n        /* \"#utility.yul\":15587:16130   */\n      pop\n      pop\n      pop\n      jump\t// out\n        /* \"#utility.yul\":16136:16253   */\n    tag_139:\n        /* \"#utility.yul\":16190:16198   */\n      0x00\n        /* \"#utility.yul\":16240:16245   */\n      dup3\n        /* \"#utility.yul\":16234:16238   */\n      dup3\n        /* \"#utility.yul\":16230:16246   */\n      shr\n        /* \"#utility.yul\":16209:16246   */\n      swap1\n      pop\n        /* \"#utility.yul\":16136:16253   */\n      swap3\n      swap2\n      pop\n      pop\n      jump\t// out\n        /* \"#utility.yul\":16259:16428   */\n    tag_140:\n        /* \"#utility.yul\":16303:16309   */\n      0x00\n        /* \"#utility.yul\":16336:16387   */\n      tag_316\n        /* \"#utility.yul\":16384:16385   */\n      0x00\n        /* \"#utility.yul\":16380:16386   */\n      not\n        /* \"#utility.yul\":16372:16377   */\n      dup5\n        /* \"#utility.yul\":16369:16370   */\n      0x08\n        /* \"#utility.yul\":16365:16378   */\n      mul\n        /* \"#utility.yul\":16336:16387   */\n      tag_139\n      jump\t// in\n    tag_316:\n        /* \"#utility.yul\":16332:16388   */\n      not\n        /* \"#utility.yul\":16417:16421   */\n      dup1\n        /* \"#utility.yul\":16411:16415   */\n      dup4\n        /* \"#utility.yul\":16407:16422   */\n      and\n        /* \"#utility.yul\":16397:16422   */\n      swap2\n      pop\n        /* \"#utility.yul\":16310:16428   */\n      pop\n        /* \"#utility.yul\":16259:16428   */\n      swap3\n      swap2\n      pop\n      pop\n      jump\t// out\n        /* \"#utility.yul\":16433:16728   */\n    tag_141:\n        /* \"#utility.yul\":16509:16513   */\n      0x00\n        /* \"#utility.yul\":16655:16684   */\n      tag_318\n        /* \"#utility.yul\":16680:16683   */\n      dup4\n        /* \"#utility.yul\":16674:16678   */\n      dup4\n        /* \"#utility.yul\":16655:16684   */\n      tag_140\n      jump\t// in\n    tag_318:\n        /* \"#utility.yul\":16647:16684   */\n      swap2\n      pop\n        /* \"#utility.yul\":16717:16720   */\n      dup3\n        /* \"#utility.yul\":16714:16715   */\n      0x02\n        /* \"#utility.yul\":16710:16721   */\n      mul\n        /* \"#utility.yul\":16704:16708   */\n      dup3\n        /* \"#utility.yul\":16701:16722   */\n      or\n        /* \"#utility.yul\":16693:16722   */\n      swap1\n      pop\n        /* \"#utility.yul\":16433:16728   */\n      swap3\n      swap2\n      pop\n      pop\n      jump\t// out\n        /* \"#utility.yul\":16733:18128   */\n    tag_78:\n        /* \"#utility.yul\":16850:16887   */\n      tag_320\n        /* \"#utility.yul\":16883:16886   */\n      dup3\n        /* \"#utility.yul\":16850:16887   */\n      tag_90\n      jump\t// in\n    tag_320:\n        /* \"#utility.yul\":16952:16970   */\n      0xffffffffffffffff\n        /* \"#utility.yul\":16944:16950   */\n      dup2\n        /* \"#utility.yul\":16941:16971   */\n      gt\n        /* \"#utility.yul\":16938:16994   */\n      iszero\n      tag_321\n      jumpi\n        /* \"#utility.yul\":16974:16992   */\n      tag_322\n      tag_101\n      jump\t// in\n    tag_322:\n        /* \"#utility.yul\":16938:16994   */\n    tag_321:\n        /* \"#utility.yul\":17018:17056   */\n      tag_323\n        /* \"#utility.yul\":17050:17054   */\n      dup3\n        /* \"#utility.yul\":17044:17055   */\n      sload\n        /* \"#utility.yul\":17018:17056   */\n      tag_58\n      jump\t// in\n    tag_323:\n        /* \"#utility.yul\":17103:17170   */\n      tag_324\n        /* \"#utility.yul\":17163:17169   */\n      dup3\n        /* \"#utility.yul\":17155:17161   */\n      dup3\n        /* \"#utility.yul\":17149:17153   */\n      dup6\n        /* \"#utility.yul\":17103:17170   */\n      tag_138\n      jump\t// in\n    tag_324:\n        /* \"#utility.yul\":17197:17198   */\n      0x00\n        /* \"#utility.yul\":17221:17225   */\n      0x20\n        /* \"#utility.yul\":17208:17225   */\n      swap1\n      pop\n        /* \"#utility.yul\":17253:17255   */\n      0x1f\n        /* \"#utility.yul\":17245:17251   */\n      dup4\n        /* \"#utility.yul\":17242:17256   */\n      gt\n        /* \"#utility.yul\":17270:17271   */\n      0x01\n        /* \"#utility.yul\":17265:17883   */\n      dup2\n      eq\n      tag_326\n      jumpi\n        /* \"#utility.yul\":17927:17928   */\n      0x00\n        /* \"#utility.yul\":17944:17950   */\n      dup5\n        /* \"#utility.yul\":17941:18018   */\n      iszero\n      tag_327\n      jumpi\n        /* \"#utility.yul\":17993:18002   */\n      dup3\n        /* \"#utility.yul\":17988:17991   */\n      dup8\n        /* \"#utility.yul\":17984:18003   */\n      add\n        /* \"#utility.yul\":17978:18004   */\n      mload\n        /* \"#utility.yul\":17969:18004   */\n      swap1\n      pop\n        /* \"#utility.yul\":17941:18018   */\n    tag_327:\n        /* \"#utility.yul\":18044:18111   */\n      tag_328\n        /* \"#utility.yul\":18104:18110   */\n      dup6\n        /* \"#utility.yul\":18097:18102   */\n      dup3\n        /* \"#utility.yul\":18044:18111   */\n      tag_141\n      jump\t// in\n    tag_328:\n        /* \"#utility.yul\":18038:18042   */\n      dup7\n        /* \"#utility.yul\":18031:18112   */\n      sstore\n        /* \"#utility.yul\":17900:18122   */\n      pop\n        /* \"#utility.yul\":17235:18122   */\n      jump(tag_325)\n        /* \"#utility.yul\":17265:17883   */\n    tag_326:\n        /* \"#utility.yul\":17317:17321   */\n      0x1f\n        /* \"#utility.yul\":17313:17322   */\n      not\n        /* \"#utility.yul\":17305:17311   */\n      dup5\n        /* \"#utility.yul\":17301:17323   */\n      and\n        /* \"#utility.yul\":17351:17388   */\n      tag_329\n        /* \"#utility.yul\":17383:17387   */\n      dup7\n        /* \"#utility.yul\":17351:17388   */\n      tag_127\n      jump\t// in\n    tag_329:\n        /* \"#utility.yul\":17410:17411   */\n      0x00\n        /* \"#utility.yul\":17424:17632   */\n    tag_330:\n        /* \"#utility.yul\":17438:17445   */\n      dup3\n        /* \"#utility.yul\":17435:17436   */\n      dup2\n        /* \"#utility.yul\":17432:17446   */\n      lt\n        /* \"#utility.yul\":17424:17632   */\n      iszero\n      tag_332\n      jumpi\n        /* \"#utility.yul\":17517:17526   */\n      dup5\n        /* \"#utility.yul\":17512:17515   */\n      dup10\n        /* \"#utility.yul\":17508:17527   */\n      add\n        /* \"#utility.yul\":17502:17528   */\n      mload\n        /* \"#utility.yul\":17494:17500   */\n      dup3\n        /* \"#utility.yul\":17487:17529   */\n      sstore\n        /* \"#utility.yul\":17568:17569   */\n      0x01\n        /* \"#utility.yul\":17560:17566   */\n      dup3\n        /* \"#utility.yul\":17556:17570   */\n      add\n        /* \"#utility.yul\":17546:17570   */\n      swap2\n      pop\n        /* \"#utility.yul\":17615:17617   */\n      0x20\n        /* \"#utility.yul\":17604:17613   */\n      dup6\n        /* \"#utility.yul\":17600:17618   */\n      add\n        /* \"#utility.yul\":17587:17618   */\n      swap5\n      pop\n        /* \"#utility.yul\":17461:17465   */\n      0x20\n        /* \"#utility.yul\":17458:17459   */\n      dup2\n        /* \"#utility.yul\":17454:17466   */\n      add\n        /* \"#utility.yul\":17449:17466   */\n      swap1\n      pop\n        /* \"#utility.yul\":17424:17632   */\n      jump(tag_330)\n    tag_332:\n        /* \"#utility.yul\":17660:17666   */\n      dup7\n        /* \"#utility.yul\":17651:17658   */\n      dup4\n        /* \"#utility.yul\":17648:17667   */\n      lt\n        /* \"#utility.yul\":17645:17824   */\n      iszero\n      tag_333\n      jumpi\n        /* \"#utility.yul\":17718:17727   */\n      dup5\n        /* \"#utility.yul\":17713:17716   */\n      dup10\n        /* \"#utility.yul\":17709:17728   */\n      add\n        /* \"#utility.yul\":17703:17729   */\n      mload\n        /* \"#utility.yul\":17761:17809   */\n      tag_334\n        /* \"#utility.yul\":17803:17807   */\n      0x1f\n        /* \"#utility.yul\":17795:17801   */\n      dup10\n        /* \"#utility.yul\":17791:17808   */\n      and\n        /* \"#utility.yul\":17780:17789   */\n      dup3\n        /* \"#utility.yul\":17761:17809   */\n      tag_140\n      jump\t// in\n    tag_334:\n        /* \"#utility.yul\":17753:17759   */\n      dup4\n        /* \"#utility.yul\":17746:17810   */\n      sstore\n        /* \"#utility.yul\":17668:17824   */\n      pop\n        /* \"#utility.yul\":17645:17824   */\n    tag_333:\n        /* \"#utility.yul\":17870:17871   */\n      0x01\n        /* \"#utility.yul\":17866:17867   */\n      0x02\n        /* \"#utility.yul\":17858:17864   */\n      dup9\n        /* \"#utility.yul\":17854:17868   */\n      mul\n        /* \"#utility.yul\":17850:17872   */\n      add\n        /* \"#utility.yul\":17844:17848   */\n      dup9\n        /* \"#utility.yul\":17837:17873   */\n      sstore\n        /* \"#utility.yul\":17272:17883   */\n      pop\n      pop\n      pop\n        /* \"#utility.yul\":17235:18122   */\n    tag_325:\n      pop\n        /* \"#utility.yul\":16825:18128   */\n      pop\n      pop\n      pop\n        /* \"#utility.yul\":16733:18128   */\n      pop\n      pop\n      jump\t// out\n\n    auxdata: 0xa2646970667358221220da37386996a06bddc41a00e3e53d9d8449cee51bf44e7cf117eac7210f25f9ad64736f6c63430008180033\n}\n",
				"bytecode": {
					"linkReferences": {},
					"object": "608060405234801561000f575f80fd5b50335f806101000a81548173ffffffffffffffffffffffffffffffffffffffff021916908373ffffffffffffffffffffffffffffffffffffffff160217905550610fce8061005c5f395ff3fe608060405234801561000f575f80fd5b5060043610610086575f3560e01c8063462e91ec11610059578063462e91ec146101265780638da5cb5b14610142578063a3ec138d14610160578063bec0fde21461019057610086565b80630121b93f1461008a5780633477ee2e146100a657806335b8e820146100d85780633866965c14610108575b5f80fd5b6100a4600480360381019061009f91906106a7565b6101ae565b005b6100c060048036038101906100bb91906106a7565b610301565b6040516100cf9392919061076b565b60405180910390f35b6100f260048036038101906100ed91906106a7565b6103ad565b6040516100ff919061084b565b60405180910390f35b6101106104c2565b60405161011d919061086b565b60405180910390f35b610140600480360381019061013b91906109b0565b6104ce565b005b61014a6105ae565b6040516101579190610a36565b60405180910390f35b61017a60048036038101906101759190610a79565b6105d1565b6040516101879190610abe565b60405180910390f35b6101986105ee565b6040516101a59190610b7f565b60405180910390f35b60035f3373ffffffffffffffffffffffffffffffffffffffff1673ffffffffffffffffffffffffffffffffffffffff1681526020019081526020015f205f9054906101000a900460ff1615610238576040517f08c379a000000000000000000000000000000000000000000000000000000000815260040161022f90610be9565b60405180910390fd5b600280549050811061027f576040517f08c379a000000000000000000000000000000000000000000000000000000000815260040161027690610c51565b60405180910390fd5b600160035f3373ffffffffffffffffffffffffffffffffffffffff1673ffffffffffffffffffffffffffffffffffffffff1681526020019081526020015f205f6101000a81548160ff0219169083151502179055506001805f8381526020019081526020015f206002015f8282546102f79190610c9c565b9250508190555050565b6001602052805f5260405f205f91509050805f01549080600101805461032690610cfc565b80601f016020809104026020016040519081016040528092919081815260200182805461035290610cfc565b801561039d5780601f106103745761010080835404028352916020019161039d565b820191905f5260205f20905b81548152906001019060200180831161038057829003601f168201915b5050505050908060020154905083565b6103b5610644565b60028054905082106103fc576040517f08c379a00000000000000000000000000000000000000000000000000000000081526004016103f390610c51565b60405180910390fd5b60015f8381526020019081526020015f206040518060600160405290815f820154815260200160018201805461043190610cfc565b80601f016020809104026020016040519081016040528092919081815260200182805461045d90610cfc565b80156104a85780601f1061047f576101008083540402835291602001916104a8565b820191905f5260205f20905b81548152906001019060200180831161048b57829003601f168201915b505050505081526020016002820154815250509050919050565b5f600280549050905090565b5f8054906101000a900473ffffffffffffffffffffffffffffffffffffffff1673ffffffffffffffffffffffffffffffffffffffff163373ffffffffffffffffffffffffffffffffffffffff1614610524575f80fd5b5f600280549050905060405180606001604052808281526020018381526020015f81525060015f8381526020019081526020015f205f820151815f015560208201518160010190816105769190610ec9565b5060408201518160020155905050600281908060018154018082558091505060019003905f5260205f20015f90919091909150555050565b5f8054906101000a900473ffffffffffffffffffffffffffffffffffffffff1681565b6003602052805f5260405f205f915054906101000a900460ff1681565b6060600280548060200260200160405190810160405280929190818152602001828054801561063a57602002820191905f5260205f20905b815481526020019060010190808311610626575b5050505050905090565b60405180606001604052805f8152602001606081526020015f81525090565b5f604051905090565b5f80fd5b5f80fd5b5f819050919050565b61068681610674565b8114610690575f80fd5b50565b5f813590506106a18161067d565b92915050565b5f602082840312156106bc576106bb61066c565b5b5f6106c984828501610693565b91505092915050565b6106db81610674565b82525050565b5f81519050919050565b5f82825260208201905092915050565b5f5b838110156107185780820151818401526020810190506106fd565b5f8484015250505050565b5f601f19601f8301169050919050565b5f61073d826106e1565b61074781856106eb565b93506107578185602086016106fb565b61076081610723565b840191505092915050565b5f60608201905061077e5f8301866106d2565b81810360208301526107908185610733565b905061079f60408301846106d2565b949350505050565b6107b081610674565b82525050565b5f82825260208201905092915050565b5f6107d0826106e1565b6107da81856107b6565b93506107ea8185602086016106fb565b6107f381610723565b840191505092915050565b5f606083015f8301516108135f8601826107a7565b506020830151848203602086015261082b82826107c6565b915050604083015161084060408601826107a7565b508091505092915050565b5f6020820190508181035f83015261086381846107fe565b905092915050565b5f60208201905061087e5f8301846106d2565b92915050565b5f80fd5b5f80fd5b7f4e487b71000000000000000000000000000000000000000000000000000000005f52604160045260245ffd5b6108c282610723565b810181811067ffffffffffffffff821117156108e1576108e061088c565b5b80604052505050565b5f6108f3610663565b90506108ff82826108b9565b919050565b5f67ffffffffffffffff82111561091e5761091d61088c565b5b61092782610723565b9050602081019050919050565b828183375f83830152505050565b5f61095461094f84610904565b6108ea565b9050828152602081018484840111156109705761096f610888565b5b61097b848285610934565b509392505050565b5f82601f83011261099757610996610884565b5b81356109a7848260208601610942565b91505092915050565b5f602082840312156109c5576109c461066c565b5b5f82013567ffffffffffffffff8111156109e2576109e1610670565b5b6109ee84828501610983565b91505092915050565b5f73ffffffffffffffffffffffffffffffffffffffff82169050919050565b5f610a20826109f7565b9050919050565b610a3081610a16565b82525050565b5f602082019050610a495f830184610a27565b92915050565b610a5881610a16565b8114610a62575f80fd5b50565b5f81359050610a7381610a4f565b92915050565b5f60208284031215610a8e57610a8d61066c565b5b5f610a9b84828501610a65565b91505092915050565b5f8115159050919050565b610ab881610aa4565b82525050565b5f602082019050610ad15f830184610aaf565b92915050565b5f81519050919050565b5f82825260208201905092915050565b5f819050602082019050919050565b5f610b0b83836107a7565b60208301905092915050565b5f602082019050919050565b5f610b2d82610ad7565b610b378185610ae1565b9350610b4283610af1565b805f5b83811015610b72578151610b598882610b00565b9750610b6483610b17565b925050600181019050610b45565b5085935050505092915050565b5f6020820190508181035f830152610b978184610b23565b905092915050565b7f566f7573206176657a2064656a6120766f7465000000000000000000000000005f82015250565b5f610bd36013836106eb565b9150610bde82610b9f565b602082019050919050565b5f6020820190508181035f830152610c0081610bc7565b9050919050565b7f4964206e6f6e2076616c61626c650000000000000000000000000000000000005f82015250565b5f610c3b600e836106eb565b9150610c4682610c07565b602082019050919050565b5f6020820190508181035f830152610c6881610c2f565b9050919050565b7f4e487b71000000000000000000000000000000000000000000000000000000005f52601160045260245ffd5b5f610ca682610674565b9150610cb183610674565b9250828201905080821115610cc957610cc8610c6f565b5b92915050565b7f4e487b71000000000000000000000000000000000000000000000000000000005f52602260045260245ffd5b5f6002820490506001821680610d1357607f821691505b602082108103610d2657610d25610ccf565b5b50919050565b5f819050815f5260205f209050919050565b5f6020601f8301049050919050565b5f82821b905092915050565b5f60088302610d887fffffffffffffffffffffffffffffffffffffffffffffffffffffffffffffffff82610d4d565b610d928683610d4d565b95508019841693508086168417925050509392505050565b5f819050919050565b5f610dcd610dc8610dc384610674565b610daa565b610674565b9050919050565b5f819050919050565b610de683610db3565b610dfa610df282610dd4565b848454610d59565b825550505050565b5f90565b610e0e610e02565b610e19818484610ddd565b505050565b5b81811015610e3c57610e315f82610e06565b600181019050610e1f565b5050565b601f821115610e8157610e5281610d2c565b610e5b84610d3e565b81016020851015610e6a578190505b610e7e610e7685610d3e565b830182610e1e565b50505b505050565b5f82821c905092915050565b5f610ea15f1984600802610e86565b1980831691505092915050565b5f610eb98383610e92565b9150826002028217905092915050565b610ed2826106e1565b67ffffffffffffffff811115610eeb57610eea61088c565b5b610ef58254610cfc565b610f00828285610e40565b5f60209050601f831160018114610f31575f8415610f1f578287015190505b610f298582610eae565b865550610f90565b601f198416610f3f86610d2c565b5f5b82811015610f6657848901518255600182019150602085019450602081019050610f41565b86831015610f835784890151610f7f601f891682610e92565b8355505b6001600288020188555050505b50505050505056fea2646970667358221220da37386996a06bddc41a00e3e53d9d8449cee51bf44e7cf117eac7210f25f9ad64736f6c63430008180033",
					"opcodes": "PUSH1 0x80 PUSH1 0x40 MSTORE CALLVALUE DUP1 ISZERO PUSH2 0xF JUMPI PUSH0 DUP1 REVERT JUMPDEST POP CALLER PUSH0 DUP1 PUSH2 0x100 EXP DUP2 SLOAD DUP2 PUSH20 0xFFFFFFFFFFFFFFFFFFFFFFFFFFFFFFFFFFFFFFFF MUL NOT AND SWAP1 DUP4 PUSH20 0xFFFFFFFFFFFFFFFFFFFFFFFFFFFFFFFFFFFFFFFF AND MUL OR SWAP1 SSTORE POP PUSH2 0xFCE DUP1 PUSH2 0x5C PUSH0 CODECOPY PUSH0 RETURN INVALID PUSH1 0x80 PUSH1 0x40 MSTORE CALLVALUE DUP1 ISZERO PUSH2 0xF JUMPI PUSH0 DUP1 REVERT JUMPDEST POP PUSH1 0x4 CALLDATASIZE LT PUSH2 0x86 JUMPI PUSH0 CALLDATALOAD PUSH1 0xE0 SHR DUP1 PUSH4 0x462E91EC GT PUSH2 0x59 JUMPI DUP1 PUSH4 0x462E91EC EQ PUSH2 0x126 JUMPI DUP1 PUSH4 0x8DA5CB5B EQ PUSH2 0x142 JUMPI DUP1 PUSH4 0xA3EC138D EQ PUSH2 0x160 JUMPI DUP1 PUSH4 0xBEC0FDE2 EQ PUSH2 0x190 JUMPI PUSH2 0x86 JUMP JUMPDEST DUP1 PUSH4 0x121B93F EQ PUSH2 0x8A JUMPI DUP1 PUSH4 0x3477EE2E EQ PUSH2 0xA6 JUMPI DUP1 PUSH4 0x35B8E820 EQ PUSH2 0xD8 JUMPI DUP1 PUSH4 0x3866965C EQ PUSH2 0x108 JUMPI JUMPDEST PUSH0 DUP1 REVERT JUMPDEST PUSH2 0xA4 PUSH1 0x4 DUP1 CALLDATASIZE SUB DUP2 ADD SWAP1 PUSH2 0x9F SWAP2 SWAP1 PUSH2 0x6A7 JUMP JUMPDEST PUSH2 0x1AE JUMP JUMPDEST STOP JUMPDEST PUSH2 0xC0 PUSH1 0x4 DUP1 CALLDATASIZE SUB DUP2 ADD SWAP1 PUSH2 0xBB SWAP2 SWAP1 PUSH2 0x6A7 JUMP JUMPDEST PUSH2 0x301 JUMP JUMPDEST PUSH1 0x40 MLOAD PUSH2 0xCF SWAP4 SWAP3 SWAP2 SWAP1 PUSH2 0x76B JUMP JUMPDEST PUSH1 0x40 MLOAD DUP1 SWAP2 SUB SWAP1 RETURN JUMPDEST PUSH2 0xF2 PUSH1 0x4 DUP1 CALLDATASIZE SUB DUP2 ADD SWAP1 PUSH2 0xED SWAP2 SWAP1 PUSH2 0x6A7 JUMP JUMPDEST PUSH2 0x3AD JUMP JUMPDEST PUSH1 0x40 MLOAD PUSH2 0xFF SWAP2 SWAP1 PUSH2 0x84B JUMP JUMPDEST PUSH1 0x40 MLOAD DUP1 SWAP2 SUB SWAP1 RETURN JUMPDEST PUSH2 0x110 PUSH2 0x4C2 JUMP JUMPDEST PUSH1 0x40 MLOAD PUSH2 0x11D SWAP2 SWAP1 PUSH2 0x86B JUMP JUMPDEST PUSH1 0x40 MLOAD DUP1 SWAP2 SUB SWAP1 RETURN JUMPDEST PUSH2 0x140 PUSH1 0x4 DUP1 CALLDATASIZE SUB DUP2 ADD SWAP1 PUSH2 0x13B SWAP2 SWAP1 PUSH2 0x9B0 JUMP JUMPDEST PUSH2 0x4CE JUMP JUMPDEST STOP JUMPDEST PUSH2 0x14A PUSH2 0x5AE JUMP JUMPDEST PUSH1 0x40 MLOAD PUSH2 0x157 SWAP2 SWAP1 PUSH2 0xA36 JUMP JUMPDEST PUSH1 0x40 MLOAD DUP1 SWAP2 SUB SWAP1 RETURN JUMPDEST PUSH2 0x17A PUSH1 0x4 DUP1 CALLDATASIZE SUB DUP2 ADD SWAP1 PUSH2 0x175 SWAP2 SWAP1 PUSH2 0xA79 JUMP JUMPDEST PUSH2 0x5D1 JUMP JUMPDEST PUSH1 0x40 MLOAD PUSH2 0x187 SWAP2 SWAP1 PUSH2 0xABE JUMP JUMPDEST PUSH1 0x40 MLOAD DUP1 SWAP2 SUB SWAP1 RETURN JUMPDEST PUSH2 0x198 PUSH2 0x5EE JUMP JUMPDEST PUSH1 0x40 MLOAD PUSH2 0x1A5 SWAP2 SWAP1 PUSH2 0xB7F JUMP JUMPDEST PUSH1 0x40 MLOAD DUP1 SWAP2 SUB SWAP1 RETURN JUMPDEST PUSH1 0x3 PUSH0 CALLER PUSH20 0xFFFFFFFFFFFFFFFFFFFFFFFFFFFFFFFFFFFFFFFF AND PUSH20 0xFFFFFFFFFFFFFFFFFFFFFFFFFFFFFFFFFFFFFFFF AND DUP2 MSTORE PUSH1 0x20 ADD SWAP1 DUP2 MSTORE PUSH1 0x20 ADD PUSH0 KECCAK256 PUSH0 SWAP1 SLOAD SWAP1 PUSH2 0x100 EXP SWAP1 DIV PUSH1 0xFF AND ISZERO PUSH2 0x238 JUMPI PUSH1 0x40 MLOAD PUSH32 0x8C379A000000000000000000000000000000000000000000000000000000000 DUP2 MSTORE PUSH1 0x4 ADD PUSH2 0x22F SWAP1 PUSH2 0xBE9 JUMP JUMPDEST PUSH1 0x40 MLOAD DUP1 SWAP2 SUB SWAP1 REVERT JUMPDEST PUSH1 0x2 DUP1 SLOAD SWAP1 POP DUP2 LT PUSH2 0x27F JUMPI PUSH1 0x40 MLOAD PUSH32 0x8C379A000000000000000000000000000000000000000000000000000000000 DUP2 MSTORE PUSH1 0x4 ADD PUSH2 0x276 SWAP1 PUSH2 0xC51 JUMP JUMPDEST PUSH1 0x40 MLOAD DUP1 SWAP2 SUB SWAP1 REVERT JUMPDEST PUSH1 0x1 PUSH1 0x3 PUSH0 CALLER PUSH20 0xFFFFFFFFFFFFFFFFFFFFFFFFFFFFFFFFFFFFFFFF AND PUSH20 0xFFFFFFFFFFFFFFFFFFFFFFFFFFFFFFFFFFFFFFFF AND DUP2 MSTORE PUSH1 0x20 ADD SWAP1 DUP2 MSTORE PUSH1 0x20 ADD PUSH0 KECCAK256 PUSH0 PUSH2 0x100 EXP DUP2 SLOAD DUP2 PUSH1 0xFF MUL NOT AND SWAP1 DUP4 ISZERO ISZERO MUL OR SWAP1 SSTORE POP PUSH1 0x1 DUP1 PUSH0 DUP4 DUP2 MSTORE PUSH1 0x20 ADD SWAP1 DUP2 MSTORE PUSH1 0x20 ADD PUSH0 KECCAK256 PUSH1 0x2 ADD PUSH0 DUP3 DUP3 SLOAD PUSH2 0x2F7 SWAP2 SWAP1 PUSH2 0xC9C JUMP JUMPDEST SWAP3 POP POP DUP2 SWAP1 SSTORE POP POP JUMP JUMPDEST PUSH1 0x1 PUSH1 0x20 MSTORE DUP1 PUSH0 MSTORE PUSH1 0x40 PUSH0 KECCAK256 PUSH0 SWAP2 POP SWAP1 POP DUP1 PUSH0 ADD SLOAD SWAP1 DUP1 PUSH1 0x1 ADD DUP1 SLOAD PUSH2 0x326 SWAP1 PUSH2 0xCFC JUMP JUMPDEST DUP1 PUSH1 0x1F ADD PUSH1 0x20 DUP1 SWAP2 DIV MUL PUSH1 0x20 ADD PUSH1 0x40 MLOAD SWAP1 DUP2 ADD PUSH1 0x40 MSTORE DUP1 SWAP3 SWAP2 SWAP1 DUP2 DUP2 MSTORE PUSH1 0x20 ADD DUP3 DUP1 SLOAD PUSH2 0x352 SWAP1 PUSH2 0xCFC JUMP JUMPDEST DUP1 ISZERO PUSH2 0x39D JUMPI DUP1 PUSH1 0x1F LT PUSH2 0x374 JUMPI PUSH2 0x100 DUP1 DUP4 SLOAD DIV MUL DUP4 MSTORE SWAP2 PUSH1 0x20 ADD SWAP2 PUSH2 0x39D JUMP JUMPDEST DUP3 ADD SWAP2 SWAP1 PUSH0 MSTORE PUSH1 0x20 PUSH0 KECCAK256 SWAP1 JUMPDEST DUP2 SLOAD DUP2 MSTORE SWAP1 PUSH1 0x1 ADD SWAP1 PUSH1 0x20 ADD DUP1 DUP4 GT PUSH2 0x380 JUMPI DUP3 SWAP1 SUB PUSH1 0x1F AND DUP3 ADD SWAP2 JUMPDEST POP POP POP POP POP SWAP1 DUP1 PUSH1 0x2 ADD SLOAD SWAP1 POP DUP4 JUMP JUMPDEST PUSH2 0x3B5 PUSH2 0x644 JUMP JUMPDEST PUSH1 0x2 DUP1 SLOAD SWAP1 POP DUP3 LT PUSH2 0x3FC JUMPI PUSH1 0x40 MLOAD PUSH32 0x8C379A000000000000000000000000000000000000000000000000000000000 DUP2 MSTORE PUSH1 0x4 ADD PUSH2 0x3F3 SWAP1 PUSH2 0xC51 JUMP JUMPDEST PUSH1 0x40 MLOAD DUP1 SWAP2 SUB SWAP1 REVERT JUMPDEST PUSH1 0x1 PUSH0 DUP4 DUP2 MSTORE PUSH1 0x20 ADD SWAP1 DUP2 MSTORE PUSH1 0x20 ADD PUSH0 KECCAK256 PUSH1 0x40 MLOAD DUP1 PUSH1 0x60 ADD PUSH1 0x40 MSTORE SWAP1 DUP2 PUSH0 DUP3 ADD SLOAD DUP2 MSTORE PUSH1 0x20 ADD PUSH1 0x1 DUP3 ADD DUP1 SLOAD PUSH2 0x431 SWAP1 PUSH2 0xCFC JUMP JUMPDEST DUP1 PUSH1 0x1F ADD PUSH1 0x20 DUP1 SWAP2 DIV MUL PUSH1 0x20 ADD PUSH1 0x40 MLOAD SWAP1 DUP2 ADD PUSH1 0x40 MSTORE DUP1 SWAP3 SWAP2 SWAP1 DUP2 DUP2 MSTORE PUSH1 0x20 ADD DUP3 DUP1 SLOAD PUSH2 0x45D SWAP1 PUSH2 0xCFC JUMP JUMPDEST DUP1 ISZERO PUSH2 0x4A8 JUMPI DUP1 PUSH1 0x1F LT PUSH2 0x47F JUMPI PUSH2 0x100 DUP1 DUP4 SLOAD DIV MUL DUP4 MSTORE SWAP2 PUSH1 0x20 ADD SWAP2 PUSH2 0x4A8 JUMP JUMPDEST DUP3 ADD SWAP2 SWAP1 PUSH0 MSTORE PUSH1 0x20 PUSH0 KECCAK256 SWAP1 JUMPDEST DUP2 SLOAD DUP2 MSTORE SWAP1 PUSH1 0x1 ADD SWAP1 PUSH1 0x20 ADD DUP1 DUP4 GT PUSH2 0x48B JUMPI DUP3 SWAP1 SUB PUSH1 0x1F AND DUP3 ADD SWAP2 JUMPDEST POP POP POP POP POP DUP2 MSTORE PUSH1 0x20 ADD PUSH1 0x2 DUP3 ADD SLOAD DUP2 MSTORE POP POP SWAP1 POP SWAP2 SWAP1 POP JUMP JUMPDEST PUSH0 PUSH1 0x2 DUP1 SLOAD SWAP1 POP SWAP1 POP SWAP1 JUMP JUMPDEST PUSH0 DUP1 SLOAD SWAP1 PUSH2 0x100 EXP SWAP1 DIV PUSH20 0xFFFFFFFFFFFFFFFFFFFFFFFFFFFFFFFFFFFFFFFF AND PUSH20 0xFFFFFFFFFFFFFFFFFFFFFFFFFFFFFFFFFFFFFFFF AND CALLER PUSH20 0xFFFFFFFFFFFFFFFFFFFFFFFFFFFFFFFFFFFFFFFF AND EQ PUSH2 0x524 JUMPI PUSH0 DUP1 REVERT JUMPDEST PUSH0 PUSH1 0x2 DUP1 SLOAD SWAP1 POP SWAP1 POP PUSH1 0x40 MLOAD DUP1 PUSH1 0x60 ADD PUSH1 0x40 MSTORE DUP1 DUP3 DUP2 MSTORE PUSH1 0x20 ADD DUP4 DUP2 MSTORE PUSH1 0x20 ADD PUSH0 DUP2 MSTORE POP PUSH1 0x1 PUSH0 DUP4 DUP2 MSTORE PUSH1 0x20 ADD SWAP1 DUP2 MSTORE PUSH1 0x20 ADD PUSH0 KECCAK256 PUSH0 DUP3 ADD MLOAD DUP2 PUSH0 ADD SSTORE PUSH1 0x20 DUP3 ADD MLOAD DUP2 PUSH1 0x1 ADD SWAP1 DUP2 PUSH2 0x576 SWAP2 SWAP1 PUSH2 0xEC9 JUMP JUMPDEST POP PUSH1 0x40 DUP3 ADD MLOAD DUP2 PUSH1 0x2 ADD SSTORE SWAP1 POP POP PUSH1 0x2 DUP2 SWAP1 DUP1 PUSH1 0x1 DUP2 SLOAD ADD DUP1 DUP3 SSTORE DUP1 SWAP2 POP POP PUSH1 0x1 SWAP1 SUB SWAP1 PUSH0 MSTORE PUSH1 0x20 PUSH0 KECCAK256 ADD PUSH0 SWAP1 SWAP2 SWAP1 SWAP2 SWAP1 SWAP2 POP SSTORE POP POP JUMP JUMPDEST PUSH0 DUP1 SLOAD SWAP1 PUSH2 0x100 EXP SWAP1 DIV PUSH20 0xFFFFFFFFFFFFFFFFFFFFFFFFFFFFFFFFFFFFFFFF AND DUP2 JUMP JUMPDEST PUSH1 0x3 PUSH1 0x20 MSTORE DUP1 PUSH0 MSTORE PUSH1 0x40 PUSH0 KECCAK256 PUSH0 SWAP2 POP SLOAD SWAP1 PUSH2 0x100 EXP SWAP1 DIV PUSH1 0xFF AND DUP2 JUMP JUMPDEST PUSH1 0x60 PUSH1 0x2 DUP1 SLOAD DUP1 PUSH1 0x20 MUL PUSH1 0x20 ADD PUSH1 0x40 MLOAD SWAP1 DUP2 ADD PUSH1 0x40 MSTORE DUP1 SWAP3 SWAP2 SWAP1 DUP2 DUP2 MSTORE PUSH1 0x20 ADD DUP3 DUP1 SLOAD DUP1 ISZERO PUSH2 0x63A JUMPI PUSH1 0x20 MUL DUP3 ADD SWAP2 SWAP1 PUSH0 MSTORE PUSH1 0x20 PUSH0 KECCAK256 SWAP1 JUMPDEST DUP2 SLOAD DUP2 MSTORE PUSH1 0x20 ADD SWAP1 PUSH1 0x1 ADD SWAP1 DUP1 DUP4 GT PUSH2 0x626 JUMPI JUMPDEST POP POP POP POP POP SWAP1 POP SWAP1 JUMP JUMPDEST PUSH1 0x40 MLOAD DUP1 PUSH1 0x60 ADD PUSH1 0x40 MSTORE DUP1 PUSH0 DUP2 MSTORE PUSH1 0x20 ADD PUSH1 0x60 DUP2 MSTORE PUSH1 0x20 ADD PUSH0 DUP2 MSTORE POP SWAP1 JUMP JUMPDEST PUSH0 PUSH1 0x40 MLOAD SWAP1 POP SWAP1 JUMP JUMPDEST PUSH0 DUP1 REVERT JUMPDEST PUSH0 DUP1 REVERT JUMPDEST PUSH0 DUP2 SWAP1 POP SWAP2 SWAP1 POP JUMP JUMPDEST PUSH2 0x686 DUP2 PUSH2 0x674 JUMP JUMPDEST DUP2 EQ PUSH2 0x690 JUMPI PUSH0 DUP1 REVERT JUMPDEST POP JUMP JUMPDEST PUSH0 DUP2 CALLDATALOAD SWAP1 POP PUSH2 0x6A1 DUP2 PUSH2 0x67D JUMP JUMPDEST SWAP3 SWAP2 POP POP JUMP JUMPDEST PUSH0 PUSH1 0x20 DUP3 DUP5 SUB SLT ISZERO PUSH2 0x6BC JUMPI PUSH2 0x6BB PUSH2 0x66C JUMP JUMPDEST JUMPDEST PUSH0 PUSH2 0x6C9 DUP5 DUP3 DUP6 ADD PUSH2 0x693 JUMP JUMPDEST SWAP2 POP POP SWAP3 SWAP2 POP POP JUMP JUMPDEST PUSH2 0x6DB DUP2 PUSH2 0x674 JUMP JUMPDEST DUP3 MSTORE POP POP JUMP JUMPDEST PUSH0 DUP2 MLOAD SWAP1 POP SWAP2 SWAP1 POP JUMP JUMPDEST PUSH0 DUP3 DUP3 MSTORE PUSH1 0x20 DUP3 ADD SWAP1 POP SWAP3 SWAP2 POP POP JUMP JUMPDEST PUSH0 JUMPDEST DUP4 DUP2 LT ISZERO PUSH2 0x718 JUMPI DUP1 DUP3 ADD MLOAD DUP2 DUP5 ADD MSTORE PUSH1 0x20 DUP2 ADD SWAP1 POP PUSH2 0x6FD JUMP JUMPDEST PUSH0 DUP5 DUP5 ADD MSTORE POP POP POP POP JUMP JUMPDEST PUSH0 PUSH1 0x1F NOT PUSH1 0x1F DUP4 ADD AND SWAP1 POP SWAP2 SWAP1 POP JUMP JUMPDEST PUSH0 PUSH2 0x73D DUP3 PUSH2 0x6E1 JUMP JUMPDEST PUSH2 0x747 DUP2 DUP6 PUSH2 0x6EB JUMP JUMPDEST SWAP4 POP PUSH2 0x757 DUP2 DUP6 PUSH1 0x20 DUP7 ADD PUSH2 0x6FB JUMP JUMPDEST PUSH2 0x760 DUP2 PUSH2 0x723 JUMP JUMPDEST DUP5 ADD SWAP2 POP POP SWAP3 SWAP2 POP POP JUMP JUMPDEST PUSH0 PUSH1 0x60 DUP3 ADD SWAP1 POP PUSH2 0x77E PUSH0 DUP4 ADD DUP7 PUSH2 0x6D2 JUMP JUMPDEST DUP2 DUP2 SUB PUSH1 0x20 DUP4 ADD MSTORE PUSH2 0x790 DUP2 DUP6 PUSH2 0x733 JUMP JUMPDEST SWAP1 POP PUSH2 0x79F PUSH1 0x40 DUP4 ADD DUP5 PUSH2 0x6D2 JUMP JUMPDEST SWAP5 SWAP4 POP POP POP POP JUMP JUMPDEST PUSH2 0x7B0 DUP2 PUSH2 0x674 JUMP JUMPDEST DUP3 MSTORE POP POP JUMP JUMPDEST PUSH0 DUP3 DUP3 MSTORE PUSH1 0x20 DUP3 ADD SWAP1 POP SWAP3 SWAP2 POP POP JUMP JUMPDEST PUSH0 PUSH2 0x7D0 DUP3 PUSH2 0x6E1 JUMP JUMPDEST PUSH2 0x7DA DUP2 DUP6 PUSH2 0x7B6 JUMP JUMPDEST SWAP4 POP PUSH2 0x7EA DUP2 DUP6 PUSH1 0x20 DUP7 ADD PUSH2 0x6FB JUMP JUMPDEST PUSH2 0x7F3 DUP2 PUSH2 0x723 JUMP JUMPDEST DUP5 ADD SWAP2 POP POP SWAP3 SWAP2 POP POP JUMP JUMPDEST PUSH0 PUSH1 0x60 DUP4 ADD PUSH0 DUP4 ADD MLOAD PUSH2 0x813 PUSH0 DUP7 ADD DUP3 PUSH2 0x7A7 JUMP JUMPDEST POP PUSH1 0x20 DUP4 ADD MLOAD DUP5 DUP3 SUB PUSH1 0x20 DUP7 ADD MSTORE PUSH2 0x82B DUP3 DUP3 PUSH2 0x7C6 JUMP JUMPDEST SWAP2 POP POP PUSH1 0x40 DUP4 ADD MLOAD PUSH2 0x840 PUSH1 0x40 DUP7 ADD DUP3 PUSH2 0x7A7 JUMP JUMPDEST POP DUP1 SWAP2 POP POP SWAP3 SWAP2 POP POP JUMP JUMPDEST PUSH0 PUSH1 0x20 DUP3 ADD SWAP1 POP DUP2 DUP2 SUB PUSH0 DUP4 ADD MSTORE PUSH2 0x863 DUP2 DUP5 PUSH2 0x7FE JUMP JUMPDEST SWAP1 POP SWAP3 SWAP2 POP POP JUMP JUMPDEST PUSH0 PUSH1 0x20 DUP3 ADD SWAP1 POP PUSH2 0x87E PUSH0 DUP4 ADD DUP5 PUSH2 0x6D2 JUMP JUMPDEST SWAP3 SWAP2 POP POP JUMP JUMPDEST PUSH0 DUP1 REVERT JUMPDEST PUSH0 DUP1 REVERT JUMPDEST PUSH32 0x4E487B7100000000000000000000000000000000000000000000000000000000 PUSH0 MSTORE PUSH1 0x41 PUSH1 0x4 MSTORE PUSH1 0x24 PUSH0 REVERT JUMPDEST PUSH2 0x8C2 DUP3 PUSH2 0x723 JUMP JUMPDEST DUP2 ADD DUP2 DUP2 LT PUSH8 0xFFFFFFFFFFFFFFFF DUP3 GT OR ISZERO PUSH2 0x8E1 JUMPI PUSH2 0x8E0 PUSH2 0x88C JUMP JUMPDEST JUMPDEST DUP1 PUSH1 0x40 MSTORE POP POP POP JUMP JUMPDEST PUSH0 PUSH2 0x8F3 PUSH2 0x663 JUMP JUMPDEST SWAP1 POP PUSH2 0x8FF DUP3 DUP3 PUSH2 0x8B9 JUMP JUMPDEST SWAP2 SWAP1 POP JUMP JUMPDEST PUSH0 PUSH8 0xFFFFFFFFFFFFFFFF DUP3 GT ISZERO PUSH2 0x91E JUMPI PUSH2 0x91D PUSH2 0x88C JUMP JUMPDEST JUMPDEST PUSH2 0x927 DUP3 PUSH2 0x723 JUMP JUMPDEST SWAP1 POP PUSH1 0x20 DUP2 ADD SWAP1 POP SWAP2 SWAP1 POP JUMP JUMPDEST DUP3 DUP2 DUP4 CALLDATACOPY PUSH0 DUP4 DUP4 ADD MSTORE POP POP POP JUMP JUMPDEST PUSH0 PUSH2 0x954 PUSH2 0x94F DUP5 PUSH2 0x904 JUMP JUMPDEST PUSH2 0x8EA JUMP JUMPDEST SWAP1 POP DUP3 DUP2 MSTORE PUSH1 0x20 DUP2 ADD DUP5 DUP5 DUP5 ADD GT ISZERO PUSH2 0x970 JUMPI PUSH2 0x96F PUSH2 0x888 JUMP JUMPDEST JUMPDEST PUSH2 0x97B DUP5 DUP3 DUP6 PUSH2 0x934 JUMP JUMPDEST POP SWAP4 SWAP3 POP POP POP JUMP JUMPDEST PUSH0 DUP3 PUSH1 0x1F DUP4 ADD SLT PUSH2 0x997 JUMPI PUSH2 0x996 PUSH2 0x884 JUMP JUMPDEST JUMPDEST DUP2 CALLDATALOAD PUSH2 0x9A7 DUP5 DUP3 PUSH1 0x20 DUP7 ADD PUSH2 0x942 JUMP JUMPDEST SWAP2 POP POP SWAP3 SWAP2 POP POP JUMP JUMPDEST PUSH0 PUSH1 0x20 DUP3 DUP5 SUB SLT ISZERO PUSH2 0x9C5 JUMPI PUSH2 0x9C4 PUSH2 0x66C JUMP JUMPDEST JUMPDEST PUSH0 DUP3 ADD CALLDATALOAD PUSH8 0xFFFFFFFFFFFFFFFF DUP2 GT ISZERO PUSH2 0x9E2 JUMPI PUSH2 0x9E1 PUSH2 0x670 JUMP JUMPDEST JUMPDEST PUSH2 0x9EE DUP5 DUP3 DUP6 ADD PUSH2 0x983 JUMP JUMPDEST SWAP2 POP POP SWAP3 SWAP2 POP POP JUMP JUMPDEST PUSH0 PUSH20 0xFFFFFFFFFFFFFFFFFFFFFFFFFFFFFFFFFFFFFFFF DUP3 AND SWAP1 POP SWAP2 SWAP1 POP JUMP JUMPDEST PUSH0 PUSH2 0xA20 DUP3 PUSH2 0x9F7 JUMP JUMPDEST SWAP1 POP SWAP2 SWAP1 POP JUMP JUMPDEST PUSH2 0xA30 DUP2 PUSH2 0xA16 JUMP JUMPDEST DUP3 MSTORE POP POP JUMP JUMPDEST PUSH0 PUSH1 0x20 DUP3 ADD SWAP1 POP PUSH2 0xA49 PUSH0 DUP4 ADD DUP5 PUSH2 0xA27 JUMP JUMPDEST SWAP3 SWAP2 POP POP JUMP JUMPDEST PUSH2 0xA58 DUP2 PUSH2 0xA16 JUMP JUMPDEST DUP2 EQ PUSH2 0xA62 JUMPI PUSH0 DUP1 REVERT JUMPDEST POP JUMP JUMPDEST PUSH0 DUP2 CALLDATALOAD SWAP1 POP PUSH2 0xA73 DUP2 PUSH2 0xA4F JUMP JUMPDEST SWAP3 SWAP2 POP POP JUMP JUMPDEST PUSH0 PUSH1 0x20 DUP3 DUP5 SUB SLT ISZERO PUSH2 0xA8E JUMPI PUSH2 0xA8D PUSH2 0x66C JUMP JUMPDEST JUMPDEST PUSH0 PUSH2 0xA9B DUP5 DUP3 DUP6 ADD PUSH2 0xA65 JUMP JUMPDEST SWAP2 POP POP SWAP3 SWAP2 POP POP JUMP JUMPDEST PUSH0 DUP2 ISZERO ISZERO SWAP1 POP SWAP2 SWAP1 POP JUMP JUMPDEST PUSH2 0xAB8 DUP2 PUSH2 0xAA4 JUMP JUMPDEST DUP3 MSTORE POP POP JUMP JUMPDEST PUSH0 PUSH1 0x20 DUP3 ADD SWAP1 POP PUSH2 0xAD1 PUSH0 DUP4 ADD DUP5 PUSH2 0xAAF JUMP JUMPDEST SWAP3 SWAP2 POP POP JUMP JUMPDEST PUSH0 DUP2 MLOAD SWAP1 POP SWAP2 SWAP1 POP JUMP JUMPDEST PUSH0 DUP3 DUP3 MSTORE PUSH1 0x20 DUP3 ADD SWAP1 POP SWAP3 SWAP2 POP POP JUMP JUMPDEST PUSH0 DUP2 SWAP1 POP PUSH1 0x20 DUP3 ADD SWAP1 POP SWAP2 SWAP1 POP JUMP JUMPDEST PUSH0 PUSH2 0xB0B DUP4 DUP4 PUSH2 0x7A7 JUMP JUMPDEST PUSH1 0x20 DUP4 ADD SWAP1 POP SWAP3 SWAP2 POP POP JUMP JUMPDEST PUSH0 PUSH1 0x20 DUP3 ADD SWAP1 POP SWAP2 SWAP1 POP JUMP JUMPDEST PUSH0 PUSH2 0xB2D DUP3 PUSH2 0xAD7 JUMP JUMPDEST PUSH2 0xB37 DUP2 DUP6 PUSH2 0xAE1 JUMP JUMPDEST SWAP4 POP PUSH2 0xB42 DUP4 PUSH2 0xAF1 JUMP JUMPDEST DUP1 PUSH0 JUMPDEST DUP4 DUP2 LT ISZERO PUSH2 0xB72 JUMPI DUP2 MLOAD PUSH2 0xB59 DUP9 DUP3 PUSH2 0xB00 JUMP JUMPDEST SWAP8 POP PUSH2 0xB64 DUP4 PUSH2 0xB17 JUMP JUMPDEST SWAP3 POP POP PUSH1 0x1 DUP2 ADD SWAP1 POP PUSH2 0xB45 JUMP JUMPDEST POP DUP6 SWAP4 POP POP POP POP SWAP3 SWAP2 POP POP JUMP JUMPDEST PUSH0 PUSH1 0x20 DUP3 ADD SWAP1 POP DUP2 DUP2 SUB PUSH0 DUP4 ADD MSTORE PUSH2 0xB97 DUP2 DUP5 PUSH2 0xB23 JUMP JUMPDEST SWAP1 POP SWAP3 SWAP2 POP POP JUMP JUMPDEST PUSH32 0x566F7573206176657A2064656A6120766F746500000000000000000000000000 PUSH0 DUP3 ADD MSTORE POP JUMP JUMPDEST PUSH0 PUSH2 0xBD3 PUSH1 0x13 DUP4 PUSH2 0x6EB JUMP JUMPDEST SWAP2 POP PUSH2 0xBDE DUP3 PUSH2 0xB9F JUMP JUMPDEST PUSH1 0x20 DUP3 ADD SWAP1 POP SWAP2 SWAP1 POP JUMP JUMPDEST PUSH0 PUSH1 0x20 DUP3 ADD SWAP1 POP DUP2 DUP2 SUB PUSH0 DUP4 ADD MSTORE PUSH2 0xC00 DUP2 PUSH2 0xBC7 JUMP JUMPDEST SWAP1 POP SWAP2 SWAP1 POP JUMP JUMPDEST PUSH32 0x4964206E6F6E2076616C61626C65000000000000000000000000000000000000 PUSH0 DUP3 ADD MSTORE POP JUMP JUMPDEST PUSH0 PUSH2 0xC3B PUSH1 0xE DUP4 PUSH2 0x6EB JUMP JUMPDEST SWAP2 POP PUSH2 0xC46 DUP3 PUSH2 0xC07 JUMP JUMPDEST PUSH1 0x20 DUP3 ADD SWAP1 POP SWAP2 SWAP1 POP JUMP JUMPDEST PUSH0 PUSH1 0x20 DUP3 ADD SWAP1 POP DUP2 DUP2 SUB PUSH0 DUP4 ADD MSTORE PUSH2 0xC68 DUP2 PUSH2 0xC2F JUMP JUMPDEST SWAP1 POP SWAP2 SWAP1 POP JUMP JUMPDEST PUSH32 0x4E487B7100000000000000000000000000000000000000000000000000000000 PUSH0 MSTORE PUSH1 0x11 PUSH1 0x4 MSTORE PUSH1 0x24 PUSH0 REVERT JUMPDEST PUSH0 PUSH2 0xCA6 DUP3 PUSH2 0x674 JUMP JUMPDEST SWAP2 POP PUSH2 0xCB1 DUP4 PUSH2 0x674 JUMP JUMPDEST SWAP3 POP DUP3 DUP3 ADD SWAP1 POP DUP1 DUP3 GT ISZERO PUSH2 0xCC9 JUMPI PUSH2 0xCC8 PUSH2 0xC6F JUMP JUMPDEST JUMPDEST SWAP3 SWAP2 POP POP JUMP JUMPDEST PUSH32 0x4E487B7100000000000000000000000000000000000000000000000000000000 PUSH0 MSTORE PUSH1 0x22 PUSH1 0x4 MSTORE PUSH1 0x24 PUSH0 REVERT JUMPDEST PUSH0 PUSH1 0x2 DUP3 DIV SWAP1 POP PUSH1 0x1 DUP3 AND DUP1 PUSH2 0xD13 JUMPI PUSH1 0x7F DUP3 AND SWAP2 POP JUMPDEST PUSH1 0x20 DUP3 LT DUP2 SUB PUSH2 0xD26 JUMPI PUSH2 0xD25 PUSH2 0xCCF JUMP JUMPDEST JUMPDEST POP SWAP2 SWAP1 POP JUMP JUMPDEST PUSH0 DUP2 SWAP1 POP DUP2 PUSH0 MSTORE PUSH1 0x20 PUSH0 KECCAK256 SWAP1 POP SWAP2 SWAP1 POP JUMP JUMPDEST PUSH0 PUSH1 0x20 PUSH1 0x1F DUP4 ADD DIV SWAP1 POP SWAP2 SWAP1 POP JUMP JUMPDEST PUSH0 DUP3 DUP3 SHL SWAP1 POP SWAP3 SWAP2 POP POP JUMP JUMPDEST PUSH0 PUSH1 0x8 DUP4 MUL PUSH2 0xD88 PUSH32 0xFFFFFFFFFFFFFFFFFFFFFFFFFFFFFFFFFFFFFFFFFFFFFFFFFFFFFFFFFFFFFFFF DUP3 PUSH2 0xD4D JUMP JUMPDEST PUSH2 0xD92 DUP7 DUP4 PUSH2 0xD4D JUMP JUMPDEST SWAP6 POP DUP1 NOT DUP5 AND SWAP4 POP DUP1 DUP7 AND DUP5 OR SWAP3 POP POP POP SWAP4 SWAP3 POP POP POP JUMP JUMPDEST PUSH0 DUP2 SWAP1 POP SWAP2 SWAP1 POP JUMP JUMPDEST PUSH0 PUSH2 0xDCD PUSH2 0xDC8 PUSH2 0xDC3 DUP5 PUSH2 0x674 JUMP JUMPDEST PUSH2 0xDAA JUMP JUMPDEST PUSH2 0x674 JUMP JUMPDEST SWAP1 POP SWAP2 SWAP1 POP JUMP JUMPDEST PUSH0 DUP2 SWAP1 POP SWAP2 SWAP1 POP JUMP JUMPDEST PUSH2 0xDE6 DUP4 PUSH2 0xDB3 JUMP JUMPDEST PUSH2 0xDFA PUSH2 0xDF2 DUP3 PUSH2 0xDD4 JUMP JUMPDEST DUP5 DUP5 SLOAD PUSH2 0xD59 JUMP JUMPDEST DUP3 SSTORE POP POP POP POP JUMP JUMPDEST PUSH0 SWAP1 JUMP JUMPDEST PUSH2 0xE0E PUSH2 0xE02 JUMP JUMPDEST PUSH2 0xE19 DUP2 DUP5 DUP5 PUSH2 0xDDD JUMP JUMPDEST POP POP POP JUMP JUMPDEST JUMPDEST DUP2 DUP2 LT ISZERO PUSH2 0xE3C JUMPI PUSH2 0xE31 PUSH0 DUP3 PUSH2 0xE06 JUMP JUMPDEST PUSH1 0x1 DUP2 ADD SWAP1 POP PUSH2 0xE1F JUMP JUMPDEST POP POP JUMP JUMPDEST PUSH1 0x1F DUP3 GT ISZERO PUSH2 0xE81 JUMPI PUSH2 0xE52 DUP2 PUSH2 0xD2C JUMP JUMPDEST PUSH2 0xE5B DUP5 PUSH2 0xD3E JUMP JUMPDEST DUP2 ADD PUSH1 0x20 DUP6 LT ISZERO PUSH2 0xE6A JUMPI DUP2 SWAP1 POP JUMPDEST PUSH2 0xE7E PUSH2 0xE76 DUP6 PUSH2 0xD3E JUMP JUMPDEST DUP4 ADD DUP3 PUSH2 0xE1E JUMP JUMPDEST POP POP JUMPDEST POP POP POP JUMP JUMPDEST PUSH0 DUP3 DUP3 SHR SWAP1 POP SWAP3 SWAP2 POP POP JUMP JUMPDEST PUSH0 PUSH2 0xEA1 PUSH0 NOT DUP5 PUSH1 0x8 MUL PUSH2 0xE86 JUMP JUMPDEST NOT DUP1 DUP4 AND SWAP2 POP POP SWAP3 SWAP2 POP POP JUMP JUMPDEST PUSH0 PUSH2 0xEB9 DUP4 DUP4 PUSH2 0xE92 JUMP JUMPDEST SWAP2 POP DUP3 PUSH1 0x2 MUL DUP3 OR SWAP1 POP SWAP3 SWAP2 POP POP JUMP JUMPDEST PUSH2 0xED2 DUP3 PUSH2 0x6E1 JUMP JUMPDEST PUSH8 0xFFFFFFFFFFFFFFFF DUP2 GT ISZERO PUSH2 0xEEB JUMPI PUSH2 0xEEA PUSH2 0x88C JUMP JUMPDEST JUMPDEST PUSH2 0xEF5 DUP3 SLOAD PUSH2 0xCFC JUMP JUMPDEST PUSH2 0xF00 DUP3 DUP3 DUP6 PUSH2 0xE40 JUMP JUMPDEST PUSH0 PUSH1 0x20 SWAP1 POP PUSH1 0x1F DUP4 GT PUSH1 0x1 DUP2 EQ PUSH2 0xF31 JUMPI PUSH0 DUP5 ISZERO PUSH2 0xF1F JUMPI DUP3 DUP8 ADD MLOAD SWAP1 POP JUMPDEST PUSH2 0xF29 DUP6 DUP3 PUSH2 0xEAE JUMP JUMPDEST DUP7 SSTORE POP PUSH2 0xF90 JUMP JUMPDEST PUSH1 0x1F NOT DUP5 AND PUSH2 0xF3F DUP7 PUSH2 0xD2C JUMP JUMPDEST PUSH0 JUMPDEST DUP3 DUP2 LT ISZERO PUSH2 0xF66 JUMPI DUP5 DUP10 ADD MLOAD DUP3 SSTORE PUSH1 0x1 DUP3 ADD SWAP2 POP PUSH1 0x20 DUP6 ADD SWAP5 POP PUSH1 0x20 DUP2 ADD SWAP1 POP PUSH2 0xF41 JUMP JUMPDEST DUP7 DUP4 LT ISZERO PUSH2 0xF83 JUMPI DUP5 DUP10 ADD MLOAD PUSH2 0xF7F PUSH1 0x1F DUP10 AND DUP3 PUSH2 0xE92 JUMP JUMPDEST DUP4 SSTORE POP JUMPDEST PUSH1 0x1 PUSH1 0x2 DUP9 MUL ADD DUP9 SSTORE POP POP POP JUMPDEST POP POP POP POP POP POP JUMP INVALID LOG2 PUSH5 0x6970667358 0x22 SLT KECCAK256 0xDA CALLDATACOPY CODESIZE PUSH10 0x96A06BDDC41A00E3E53D SWAP14 DUP5 BLOBHASH 0xCE 0xE5 SHL DELEGATECALL 0x4E PUSH29 0xF117EAC7210F25F9AD64736F6C63430008180033000000000000000000 "
				},
				"gasEstimates": {
					"creation": {
						"codeDepositCost": "809200",
						"executionCost": "25107",
						"totalCost": "834307"
					},
					"external": {
						"addCandidate(string)": "infinite",
						"candidates(uint256)": "infinite",
						"getCandidate(uint256)": "infinite",
						"getCandidateIds()": "infinite",
						"owner()": "2527",
						"totalCandidates()": "2507",
						"vote(uint256)": "infinite",
						"voters(address)": "2877"
					}
				},
				"methodIdentifiers": {
					"addCandidate(string)": "462e91ec",
					"candidates(uint256)": "3477ee2e",
					"getCandidate(uint256)": "35b8e820",
					"getCandidateIds()": "bec0fde2",
					"owner()": "8da5cb5b",
					"totalCandidates()": "3866965c",
					"vote(uint256)": "0121b93f",
					"voters(address)": "a3ec138d"
				}
			},
			"storageLayout": {
				"storage": [
					{
						"astId": 10,
						"contract": "contracts/testexo.sol:VotingSystem",
						"label": "owner",
						"offset": 0,
						"slot": "0",
						"type": "t_address"
					},
					{
						"astId": 15,
						"contract": "contracts/testexo.sol:VotingSystem",
						"label": "candidates",
						"offset": 0,
						"slot": "1",
						"type": "t_mapping(t_uint256,t_struct(Candidate)8_storage)"
					},
					{
						"astId": 18,
						"contract": "contracts/testexo.sol:VotingSystem",
						"label": "candidateIds",
						"offset": 0,
						"slot": "2",
						"type": "t_array(t_uint256)dyn_storage"
					},
					{
						"astId": 22,
						"contract": "contracts/testexo.sol:VotingSystem",
						"label": "voters",
						"offset": 0,
						"slot": "3",
						"type": "t_mapping(t_address,t_bool)"
					}
				],
				"types": {
					"t_address": {
						"encoding": "inplace",
						"label": "address",
						"numberOfBytes": "20"
					},
					"t_array(t_uint256)dyn_storage": {
						"base": "t_uint256",
						"encoding": "dynamic_array",
						"label": "uint256[]",
						"numberOfBytes": "32"
					},
					"t_bool": {
						"encoding": "inplace",
						"label": "bool",
						"numberOfBytes": "1"
					},
					"t_mapping(t_address,t_bool)": {
						"encoding": "mapping",
						"key": "t_address",
						"label": "mapping(address => bool)",
						"numberOfBytes": "32",
						"value": "t_bool"
					},
					"t_mapping(t_uint256,t_struct(Candidate)8_storage)": {
						"encoding": "mapping",
						"key": "t_uint256",
						"label": "mapping(uint256 => struct VotingSystem.Candidate)",
						"numberOfBytes": "32",
						"value": "t_struct(Candidate)8_storage"
					},
					"t_string_storage": {
						"encoding": "bytes",
						"label": "string",
						"numberOfBytes": "32"
					},
					"t_struct(Candidate)8_storage": {
						"encoding": "inplace",
						"label": "struct VotingSystem.Candidate",
						"members": [
							{
								"astId": 3,
								"contract": "contracts/testexo.sol:VotingSystem",
								"label": "id",
								"offset": 0,
								"slot": "0",
								"type": "t_uint256"
							},
							{
								"astId": 5,
								"contract": "contracts/testexo.sol:VotingSystem",
								"label": "name",
								"offset": 0,
								"slot": "1",
								"type": "t_string_storage"
							},
							{
								"astId": 7,
								"contract": "contracts/testexo.sol:VotingSystem",
								"label": "voteCount",
								"offset": 0,
								"slot": "2",
								"type": "t_uint256"
							}
						],
						"numberOfBytes": "96"
					},
					"t_uint256": {
						"encoding": "inplace",
						"label": "uint256",
						"numberOfBytes": "32"
					}
				}
			},
			"userdoc": {
				"kind": "user",
				"methods": {},
				"version": 1
			}
		}
	}
}